{"abi":[{"type":"function","name":"DEFAULT_ADMIN_ROLE","inputs":[],"outputs":[{"name":"","type":"bytes32","internalType":"bytes32"}],"stateMutability":"view"},{"type":"function","name":"MINTER_ROLE","inputs":[],"outputs":[{"name":"","type":"bytes32","internalType":"bytes32"}],"stateMutability":"view"},{"type":"function","name":"PAUSER_ROLE","inputs":[],"outputs":[{"name":"","type":"bytes32","internalType":"bytes32"}],"stateMutability":"view"},{"type":"function","name":"POLICY_ADMIN_ROLE","inputs":[],"outputs":[{"name":"","type":"bytes32","internalType":"bytes32"}],"stateMutability":"view"},{"type":"function","name":"TOKEN_EXPLORER","inputs":[],"outputs":[{"name":"","type":"uint256","internalType":"uint256"}],"stateMutability":"view"},{"type":"function","name":"TOKEN_OIL","inputs":[],"outputs":[{"name":"","type":"uint256","internalType":"uint256"}],"stateMutability":"view"},{"type":"function","name":"TOKEN_POWER","inputs":[],"outputs":[{"name":"","type":"uint256","internalType":"uint256"}],"stateMutability":"view"},{"type":"function","name":"UPGRADER_ROLE","inputs":[],"outputs":[{"name":"","type":"bytes32","internalType":"bytes32"}],"stateMutability":"view"},{"type":"function","name":"UPGRADE_INTERFACE_VERSION","inputs":[],"outputs":[{"name":"","type":"string","internalType":"string"}],"stateMutability":"view"},{"type":"function","name":"adminMint","inputs":[{"name":"to","type":"address","internalType":"address"},{"name":"id","type":"uint256","internalType":"uint256"},{"name":"amount","type":"uint256","internalType":"uint256"},{"name":"data","type":"bytes","internalType":"bytes"}],"outputs":[],"stateMutability":"nonpayable"},{"type":"function","name":"balanceOf","inputs":[{"name":"account","type":"address","internalType":"address"},{"name":"id","type":"uint256","internalType":"uint256"}],"outputs":[{"name":"","type":"uint256","internalType":"uint256"}],"stateMutability":"view"},{"type":"function","name":"balanceOfBatch","inputs":[{"name":"accounts","type":"address[]","internalType":"address[]"},{"name":"ids","type":"uint256[]","internalType":"uint256[]"}],"outputs":[{"name":"","type":"uint256[]","internalType":"uint256[]"}],"stateMutability":"view"},{"type":"function","name":"dependencyOf","inputs":[{"name":"targetId","type":"uint256","internalType":"uint256"}],"outputs":[{"name":"","type":"tuple","internalType":"struct ExplorerToken.Dependency","components":[{"name":"prereqId","type":"uint256","internalType":"uint256"},{"name":"minBalance","type":"uint256","internalType":"uint256"}]}],"stateMutability":"view"},{"type":"function","name":"exists","inputs":[{"name":"id","type":"uint256","internalType":"uint256"}],"outputs":[{"name":"","type":"bool","internalType":"bool"}],"stateMutability":"view"},{"type":"function","name":"getRoleAdmin","inputs":[{"name":"role","type":"bytes32","internalType":"bytes32"}],"outputs":[{"name":"","type":"bytes32","internalType":"bytes32"}],"stateMutability":"view"},{"type":"function","name":"getTotalHoldings","inputs":[{"name":"id","type":"uint256","internalType":"uint256"}],"outputs":[{"name":"","type":"uint256","internalType":"uint256"}],"stateMutability":"view"},{"type":"function","name":"grantRole","inputs":[{"name":"role","type":"bytes32","internalType":"bytes32"},{"name":"account","type":"address","internalType":"address"}],"outputs":[],"stateMutability":"nonpayable"},{"type":"function","name":"hasRole","inputs":[{"name":"role","type":"bytes32","internalType":"bytes32"},{"name":"account","type":"address","internalType":"address"}],"outputs":[{"name":"","type":"bool","internalType":"bool"}],"stateMutability":"view"},{"type":"function","name":"initialize","inputs":[{"name":"baseUri_","type":"string","internalType":"string"},{"name":"admin","type":"address","internalType":"address"}],"outputs":[],"stateMutability":"nonpayable"},{"type":"function","name":"isApprovedForAll","inputs":[{"name":"account","type":"address","internalType":"address"},{"name":"operator","type":"address","internalType":"address"}],"outputs":[{"name":"","type":"bool","internalType":"bool"}],"stateMutability":"view"},{"type":"function","name":"maxSupply","inputs":[{"name":"id","type":"uint256","internalType":"uint256"}],"outputs":[{"name":"","type":"uint256","internalType":"uint256"}],"stateMutability":"view"},{"type":"function","name":"mint","inputs":[{"name":"to","type":"address","internalType":"address"},{"name":"id","type":"uint256","internalType":"uint256"},{"name":"amount","type":"uint256","internalType":"uint256"},{"name":"data","type":"bytes","internalType":"bytes"}],"outputs":[],"stateMutability":"nonpayable"},{"type":"function","name":"mintBatch","inputs":[{"name":"to","type":"address","internalType":"address"},{"name":"ids","type":"uint256[]","internalType":"uint256[]"},{"name":"amounts","type":"uint256[]","internalType":"uint256[]"},{"name":"data","type":"bytes","internalType":"bytes"}],"outputs":[],"stateMutability":"nonpayable"},{"type":"function","name":"pause","inputs":[],"outputs":[],"stateMutability":"nonpayable"},{"type":"function","name":"paused","inputs":[],"outputs":[{"name":"","type":"bool","internalType":"bool"}],"stateMutability":"view"},{"type":"function","name":"proxiableUUID","inputs":[],"outputs":[{"name":"","type":"bytes32","internalType":"bytes32"}],"stateMutability":"view"},{"type":"function","name":"renounceRole","inputs":[{"name":"role","type":"bytes32","internalType":"bytes32"},{"name":"callerConfirmation","type":"address","internalType":"address"}],"outputs":[],"stateMutability":"nonpayable"},{"type":"function","name":"revokeRole","inputs":[{"name":"role","type":"bytes32","internalType":"bytes32"},{"name":"account","type":"address","internalType":"address"}],"outputs":[],"stateMutability":"nonpayable"},{"type":"function","name":"safeBatchTransferFrom","inputs":[{"name":"from","type":"address","internalType":"address"},{"name":"to","type":"address","internalType":"address"},{"name":"ids","type":"uint256[]","internalType":"uint256[]"},{"name":"values","type":"uint256[]","internalType":"uint256[]"},{"name":"data","type":"bytes","internalType":"bytes"}],"outputs":[],"stateMutability":"nonpayable"},{"type":"function","name":"safeTransferFrom","inputs":[{"name":"from","type":"address","internalType":"address"},{"name":"to","type":"address","internalType":"address"},{"name":"id","type":"uint256","internalType":"uint256"},{"name":"value","type":"uint256","internalType":"uint256"},{"name":"data","type":"bytes","internalType":"bytes"}],"outputs":[],"stateMutability":"nonpayable"},{"type":"function","name":"setApprovalForAll","inputs":[{"name":"operator","type":"address","internalType":"address"},{"name":"approved","type":"bool","internalType":"bool"}],"outputs":[],"stateMutability":"nonpayable"},{"type":"function","name":"setBaseUri","inputs":[{"name":"newBaseUri","type":"string","internalType":"string"}],"outputs":[],"stateMutability":"nonpayable"},{"type":"function","name":"setDependency","inputs":[{"name":"targetId","type":"uint256","internalType":"uint256"},{"name":"prereqId","type":"uint256","internalType":"uint256"},{"name":"minBalance","type":"uint256","internalType":"uint256"}],"outputs":[],"stateMutability":"nonpayable"},{"type":"function","name":"setMaxSupply","inputs":[{"name":"id","type":"uint256","internalType":"uint256"},{"name":"maxSupply_","type":"uint256","internalType":"uint256"}],"outputs":[],"stateMutability":"nonpayable"},{"type":"function","name":"setWalletCap","inputs":[{"name":"id","type":"uint256","internalType":"uint256"},{"name":"cap","type":"uint256","internalType":"uint256"}],"outputs":[],"stateMutability":"nonpayable"},{"type":"function","name":"supportsInterface","inputs":[{"name":"interfaceId","type":"bytes4","internalType":"bytes4"}],"outputs":[{"name":"","type":"bool","internalType":"bool"}],"stateMutability":"view"},{"type":"function","name":"totalSupply","inputs":[],"outputs":[{"name":"","type":"uint256","internalType":"uint256"}],"stateMutability":"view"},{"type":"function","name":"totalSupply","inputs":[{"name":"id","type":"uint256","internalType":"uint256"}],"outputs":[{"name":"","type":"uint256","internalType":"uint256"}],"stateMutability":"view"},{"type":"function","name":"unpause","inputs":[],"outputs":[],"stateMutability":"nonpayable"},{"type":"function","name":"upgradeToAndCall","inputs":[{"name":"newImplementation","type":"address","internalType":"address"},{"name":"data","type":"bytes","internalType":"bytes"}],"outputs":[],"stateMutability":"payable"},{"type":"function","name":"uri","inputs":[{"name":"id","type":"uint256","internalType":"uint256"}],"outputs":[{"name":"","type":"string","internalType":"string"}],"stateMutability":"view"},{"type":"function","name":"walletCap","inputs":[{"name":"id","type":"uint256","internalType":"uint256"}],"outputs":[{"name":"","type":"uint256","internalType":"uint256"}],"stateMutability":"view"},{"type":"event","name":"ApprovalForAll","inputs":[{"name":"account","type":"address","indexed":true,"internalType":"address"},{"name":"operator","type":"address","indexed":true,"internalType":"address"},{"name":"approved","type":"bool","indexed":false,"internalType":"bool"}],"anonymous":false},{"type":"event","name":"BaseUriUpdated","inputs":[{"name":"newBaseUri","type":"string","indexed":false,"internalType":"string"}],"anonymous":false},{"type":"event","name":"DependencyUpdated","inputs":[{"name":"targetId","type":"uint256","indexed":true,"internalType":"uint256"},{"name":"prereqId","type":"uint256","indexed":false,"internalType":"uint256"},{"name":"minBalance","type":"uint256","indexed":false,"internalType":"uint256"}],"anonymous":false},{"type":"event","name":"Initialized","inputs":[{"name":"version","type":"uint64","indexed":false,"internalType":"uint64"}],"anonymous":false},{"type":"event","name":"MaxSupplyUpdated","inputs":[{"name":"id","type":"uint256","indexed":true,"internalType":"uint256"},{"name":"maxSupply","type":"uint256","indexed":false,"internalType":"uint256"}],"anonymous":false},{"type":"event","name":"Paused","inputs":[{"name":"account","type":"address","indexed":false,"internalType":"address"}],"anonymous":false},{"type":"event","name":"RoleAdminChanged","inputs":[{"name":"role","type":"bytes32","indexed":true,"internalType":"bytes32"},{"name":"previousAdminRole","type":"bytes32","indexed":true,"internalType":"bytes32"},{"name":"newAdminRole","type":"bytes32","indexed":true,"internalType":"bytes32"}],"anonymous":false},{"type":"event","name":"RoleGranted","inputs":[{"name":"role","type":"bytes32","indexed":true,"internalType":"bytes32"},{"name":"account","type":"address","indexed":true,"internalType":"address"},{"name":"sender","type":"address","indexed":true,"internalType":"address"}],"anonymous":false},{"type":"event","name":"RoleRevoked","inputs":[{"name":"role","type":"bytes32","indexed":true,"internalType":"bytes32"},{"name":"account","type":"address","indexed":true,"internalType":"address"},{"name":"sender","type":"address","indexed":true,"internalType":"address"}],"anonymous":false},{"type":"event","name":"TransferBatch","inputs":[{"name":"operator","type":"address","indexed":true,"internalType":"address"},{"name":"from","type":"address","indexed":true,"internalType":"address"},{"name":"to","type":"address","indexed":true,"internalType":"address"},{"name":"ids","type":"uint256[]","indexed":false,"internalType":"uint256[]"},{"name":"values","type":"uint256[]","indexed":false,"internalType":"uint256[]"}],"anonymous":false},{"type":"event","name":"TransferSingle","inputs":[{"name":"operator","type":"address","indexed":true,"internalType":"address"},{"name":"from","type":"address","indexed":true,"internalType":"address"},{"name":"to","type":"address","indexed":true,"internalType":"address"},{"name":"id","type":"uint256","indexed":false,"internalType":"uint256"},{"name":"value","type":"uint256","indexed":false,"internalType":"uint256"}],"anonymous":false},{"type":"event","name":"URI","inputs":[{"name":"value","type":"string","indexed":false,"internalType":"string"},{"name":"id","type":"uint256","indexed":true,"internalType":"uint256"}],"anonymous":false},{"type":"event","name":"Unpaused","inputs":[{"name":"account","type":"address","indexed":false,"internalType":"address"}],"anonymous":false},{"type":"event","name":"Upgraded","inputs":[{"name":"implementation","type":"address","indexed":true,"internalType":"address"}],"anonymous":false},{"type":"event","name":"WalletCapUpdated","inputs":[{"name":"id","type":"uint256","indexed":true,"internalType":"uint256"},{"name":"cap","type":"uint256","indexed":false,"internalType":"uint256"}],"anonymous":false},{"type":"error","name":"AccessControlBadConfirmation","inputs":[]},{"type":"error","name":"AccessControlUnauthorizedAccount","inputs":[{"name":"account","type":"address","internalType":"address"},{"name":"neededRole","type":"bytes32","internalType":"bytes32"}]},{"type":"error","name":"AddressEmptyCode","inputs":[{"name":"target","type":"address","internalType":"address"}]},{"type":"error","name":"DependencyUnmet","inputs":[{"name":"targetId","type":"uint256","internalType":"uint256"},{"name":"prereqId","type":"uint256","internalType":"uint256"},{"name":"needed","type":"uint256","internalType":"uint256"},{"name":"actual","type":"uint256","internalType":"uint256"}]},{"type":"error","name":"ERC1155InsufficientBalance","inputs":[{"name":"sender","type":"address","internalType":"address"},{"name":"balance","type":"uint256","internalType":"uint256"},{"name":"needed","type":"uint256","internalType":"uint256"},{"name":"tokenId","type":"uint256","internalType":"uint256"}]},{"type":"error","name":"ERC1155InvalidApprover","inputs":[{"name":"approver","type":"address","internalType":"address"}]},{"type":"error","name":"ERC1155InvalidArrayLength","inputs":[{"name":"idsLength","type":"uint256","internalType":"uint256"},{"name":"valuesLength","type":"uint256","internalType":"uint256"}]},{"type":"error","name":"ERC1155InvalidOperator","inputs":[{"name":"operator","type":"address","internalType":"address"}]},{"type":"error","name":"ERC1155InvalidReceiver","inputs":[{"name":"receiver","type":"address","internalType":"address"}]},{"type":"error","name":"ERC1155InvalidSender","inputs":[{"name":"sender","type":"address","internalType":"address"}]},{"type":"error","name":"ERC1155MissingApprovalForAll","inputs":[{"name":"operator","type":"address","internalType":"address"},{"name":"owner","type":"address","internalType":"address"}]},{"type":"error","name":"ERC1967InvalidImplementation","inputs":[{"name":"implementation","type":"address","internalType":"address"}]},{"type":"error","name":"ERC1967NonPayable","inputs":[]},{"type":"error","name":"EnforcedPause","inputs":[]},{"type":"error","name":"ExpectedPause","inputs":[]},{"type":"error","name":"FailedCall","inputs":[]},{"type":"error","name":"InvalidInitialization","inputs":[]},{"type":"error","name":"MainnetNotAllowed","inputs":[]},{"type":"error","name":"NotInitializing","inputs":[]},{"type":"error","name":"SupplyExceeded","inputs":[{"name":"id","type":"uint256","internalType":"uint256"},{"name":"asked","type":"uint256","internalType":"uint256"},{"name":"available","type":"uint256","internalType":"uint256"}]},{"type":"error","name":"UUPSUnauthorizedCallContext","inputs":[]},{"type":"error","name":"UUPSUnsupportedProxiableUUID","inputs":[{"name":"slot","type":"bytes32","internalType":"bytes32"}]},{"type":"error","name":"WalletCapExceeded","inputs":[{"name":"id","type":"uint256","internalType":"uint256"},{"name":"to","type":"address","internalType":"address"},{"name":"asked","type":"uint256","internalType":"uint256"},{"name":"cap","type":"uint256","internalType":"uint256"}]},{"type":"error","name":"WrongTokenId","inputs":[{"name":"id","type":"uint256","internalType":"uint256"}]}],"bytecode":{"object":"0x60a06040523461003e5761001161004d565b610019610043565b61538b6101168239608051818181613662015281816136c7015261387c015261538b90f35b610049565b60405190565b5f80fd5b610055610057565b565b61005f610061565b565b61006961006b565b565b610073610075565b565b61007d61007f565b565b610087610089565b565b610091610093565b565b61009b61009d565b565b6100a56100a7565b565b6100af6100b1565b565b6100b96100bb565b565b6100c3610107565b565b60018060a01b031690565b90565b6100e76100e26100ec926100c5565b6100d0565b6100c5565b90565b6100f8906100d3565b90565b610104906100ef565b90565b610110306100fb565b60805256fe60806040526004361015610013575b611814565b61001d5f356102ba565b8062a0a52a146102b5578062fdd58e146102b057806301ffc9a7146102ab57806303a1b533146102a657806306be414f146102a15780630e89341c1461029c57806318160ddd146102975780631f7fdffa14610292578063248a9ca31461028d5780632eb2c2d6146102885780632f2ff15d1461028357806331624de21461027e57806336568abe1461027957806337da577c146102745780633f4ba83a1461026f5780634e1273f41461026a5780634f1ef286146102655780634f558e791461026057806352d1902d1461025b5780635c975abb14610256578063731133e9146102515780637ab4339d1461024c5780638456cb5914610247578063869f75941461024257806391d148541461023d578063a0bcfc7f14610238578063a17620c114610233578063a217fddf1461022e578063a22cb46514610229578063ad3cb1cc14610224578063ad7975de1461021f578063adfe36001461021a578063b9bbd2a114610215578063bd85b03914610210578063c238d1ee1461020b578063d539139314610206578063d547741f14610201578063e63ab1e9146101fc578063e985e9c5146101f7578063f242432a146101f2578063f72c0d8b146101ed5763febadb770361000e576117df565b611771565b61170b565b611666565b611604565b6115a1565b61156c565b611506565b6114d1565b61149d565b61142e565b6113f9565b61138d565b6112e1565b61125c565b6111ec565b611189565b6110de565b6110a9565b611076565b611042565b610f4a565b610eb5565b610e80565b610e4b565b610e21565b610da6565b610be0565b610bac565b610b78565b610b43565b610b0f565b610aab565b610863565b6107c3565b61066e565b610639565b61057b565b610510565b6104a9565b6103ff565b61033c565b60e01c90565b60405190565b5f80fd5b5f80fd5b5f9103126102d857565b6102ca565b90565b90565b90565b6102fa6102f56102ff926102dd565b6102e3565b6102e0565b90565b61030c60036102e6565b90565b610317610302565b90565b610323906102e0565b9052565b919061033a905f6020850194019061031a565b565b3461036c5761034c3660046102ce565b61036861035761030f565b61035f6102c0565b91829182610327565b0390f35b6102c6565b5f80fd5b60018060a01b031690565b61038990610375565b90565b61039581610380565b0361039c57565b5f80fd5b905035906103ad8261038c565b565b6103b8816102e0565b036103bf57565b5f80fd5b905035906103d0826103af565b565b91906040838203126103fa57806103ee6103f7925f86016103a0565b936020016103c3565b90565b6102ca565b346104305761042c61041b6104153660046103d2565b906118c1565b6104236102c0565b91829182610327565b0390f35b6102c6565b63ffffffff60e01b1690565b61044a81610435565b0361045157565b5f80fd5b9050359061046282610441565b565b9060208282031261047d5761047a915f01610455565b90565b6102ca565b151590565b61049090610482565b9052565b91906104a7905f60208501940190610487565b565b346104d9576104d56104c46104bf366004610464565b6118f5565b6104cc6102c0565b91829182610494565b0390f35b6102c6565b919060408382031261050657806104fa610503925f86016103c3565b936020016103c3565b90565b6102ca565b5f0190565b3461053f576105296105233660046104de565b906119d7565b6105316102c0565b8061053b8161050b565b0390f35b6102c6565b90565b61055b61055661056092610544565b6102e3565b6102e0565b90565b61056d6002610547565b90565b610578610563565b90565b346105ab5761058b3660046102ce565b6105a7610596610570565b61059e6102c0565b91829182610327565b0390f35b6102c6565b906020828203126105c9576105c6915f016103c3565b90565b6102ca565b5190565b60209181520190565b90825f9392825e0152565b601f801991011690565b61060f61061860209361061d93610606816105ce565b938480936105d2565b958691016105db565b6105e6565b0190565b6106369160208201915f8184039101526105f0565b90565b346106695761066561065461064f3660046105b0565b611bb9565b61065c6102c0565b91829182610621565b0390f35b6102c6565b3461069e5761067e3660046102ce565b61069a610689611c38565b6106916102c0565b91829182610327565b0390f35b6102c6565b5f80fd5b5f80fd5b5f80fd5b909182601f830112156106e95781359167ffffffffffffffff83116106e45760200192602083028401116106df57565b6106ab565b6106a7565b6106a3565b909182601f830112156107285781359167ffffffffffffffff831161072357602001926001830284011161071e57565b6106ab565b6106a7565b6106a3565b9190916080818403126107be57610746835f83016103a0565b92602082013567ffffffffffffffff81116107b957816107679184016106af565b929093604082013567ffffffffffffffff81116107b4578361078a9184016106af565b929093606082013567ffffffffffffffff81116107af576107ab92016106ee565b9091565b610371565b610371565b610371565b6102ca565b346107f8576107e26107d636600461072d565b95949094939193611c8f565b6107ea6102c0565b806107f48161050b565b0390f35b6102c6565b90565b610809816107fd565b0361081057565b5f80fd5b9050359061082182610800565b565b9060208282031261083c57610839915f01610814565b90565b6102ca565b61084a906107fd565b9052565b9190610861905f60208501940190610841565b565b346108935761088f61087e610879366004610823565b611cea565b6108866102c0565b9182918261084e565b0390f35b6102c6565b634e487b7160e01b5f52604160045260245ffd5b906108b6906105e6565b810190811067ffffffffffffffff8211176108d057604052565b610898565b906108e86108e16102c0565b92836108ac565b565b67ffffffffffffffff81116109025760208091020190565b610898565b9092919261091c610917826108ea565b6108d5565b938185526020808601920283019281841161095957915b8383106109405750505050565b6020809161094e84866103c3565b815201920191610933565b6106ab565b9080601f8301121561097c5781602061097993359101610907565b90565b6106a3565b5f80fd5b67ffffffffffffffff81116109a35761099f6020916105e6565b0190565b610898565b90825f939282370152565b909291926109c86109c382610985565b6108d5565b938185526020850190828401116109e4576109e2926109a8565b565b610981565b9080601f83011215610a0757816020610a04933591016109b3565b90565b6106a3565b91909160a081840312610aa657610a25835f83016103a0565b92610a3381602084016103a0565b92604083013567ffffffffffffffff8111610aa15782610a5491850161095e565b92606081013567ffffffffffffffff8111610a9c5783610a7591830161095e565b92608082013567ffffffffffffffff8111610a9757610a9492016109e9565b90565b610371565b610371565b610371565b6102ca565b34610add57610ac7610abe366004610a0c565b93929092611d44565b610acf6102c0565b80610ad98161050b565b0390f35b6102c6565b9190604083820312610b0a5780610afe610b07925f8601610814565b936020016103a0565b90565b6102ca565b34610b3e57610b28610b22366004610ae2565b90611de7565b610b306102c0565b80610b3a8161050b565b0390f35b6102c6565b34610b7357610b6f610b5e610b593660046105b0565b611df3565b610b666102c0565b91829182610327565b0390f35b6102c6565b34610ba757610b91610b8b366004610ae2565b90611e12565b610b996102c0565b80610ba38161050b565b0390f35b6102c6565b34610bdb57610bc5610bbf3660046104de565b90611ed7565b610bcd6102c0565b80610bd78161050b565b0390f35b6102c6565b34610c0e57610bf03660046102ce565b610bf8611f07565b610c006102c0565b80610c0a8161050b565b0390f35b6102c6565b67ffffffffffffffff8111610c2b5760208091020190565b610898565b90929192610c45610c4082610c13565b6108d5565b9381855260208086019202830192818411610c8257915b838310610c695750505050565b60208091610c7784866103a0565b815201920191610c5c565b6106ab565b9080601f83011215610ca557816020610ca293359101610c30565b90565b6106a3565b919091604081840312610d02575f81013567ffffffffffffffff8111610cfd5783610cd6918301610c87565b92602082013567ffffffffffffffff8111610cf857610cf5920161095e565b90565b610371565b610371565b6102ca565b5190565b60209181520190565b60200190565b610d23906102e0565b9052565b90610d3481602093610d1a565b0190565b60200190565b90610d5b610d55610d4e84610d07565b8093610d0b565b92610d14565b905f5b818110610d6b5750505090565b909192610d84610d7e6001928651610d27565b94610d38565b9101919091610d5e565b610da39160208201915f818403910152610d3e565b90565b34610dd757610dd3610dc2610dbc366004610caa565b90611fd1565b610dca6102c0565b91829182610d8e565b0390f35b6102c6565b919091604081840312610e1c57610df5835f83016103a0565b92602082013567ffffffffffffffff8111610e1757610e1492016109e9565b90565b610371565b6102ca565b610e35610e2f366004610ddc565b906120e2565b610e3d6102c0565b80610e478161050b565b0390f35b34610e7b57610e77610e66610e613660046105b0565b6120ee565b610e6e6102c0565b91829182610494565b0390f35b6102c6565b34610eb057610e903660046102ce565b610eac610e9b612181565b610ea36102c0565b9182918261084e565b0390f35b6102c6565b34610ee557610ec53660046102ce565b610ee1610ed06121bb565b610ed86102c0565b91829182610494565b0390f35b6102c6565b90608082820312610f4557610f01815f84016103a0565b92610f0f82602085016103c3565b92610f1d83604083016103c3565b92606082013567ffffffffffffffff8111610f4057610f3c92016106ee565b9091565b610371565b6102ca565b34610f7c57610f66610f5d366004610eea565b9392909261220b565b610f6e6102c0565b80610f788161050b565b0390f35b6102c6565b67ffffffffffffffff8111610f9f57610f9b6020916105e6565b0190565b610898565b90929192610fb9610fb482610f81565b6108d5565b93818552602085019082840111610fd557610fd3926109a8565b565b610981565b9080601f83011215610ff857816020610ff593359101610fa4565b90565b6106a3565b919060408382031261103d575f8301359067ffffffffffffffff82116110385761102c81611035938601610fda565b936020016103a0565b90565b610371565b6102ca565b346110715761105b611055366004610ffd565b90612763565b6110636102c0565b8061106d8161050b565b0390f35b6102c6565b346110a4576110863660046102ce565b61108e612793565b6110966102c0565b806110a08161050b565b0390f35b6102c6565b346110d9576110d56110c46110bf3660046105b0565b61279d565b6110cc6102c0565b91829182610327565b0390f35b6102c6565b3461110f5761110b6110fa6110f4366004610ae2565b906127d1565b6111026102c0565b91829182610494565b0390f35b6102c6565b909182601f8301121561114e5781359167ffffffffffffffff831161114957602001926001830284011161114457565b6106ab565b6106a7565b6106a3565b90602082820312611184575f82013567ffffffffffffffff811161117f5761117b9201611114565b9091565b610371565b6102ca565b346111b8576111a261119c366004611153565b90612985565b6111aa6102c0565b806111b48161050b565b0390f35b6102c6565b7face7350211ab645c1937904136ede4855ac3aa1eabb4970e1a51a335d2e1992090565b6111e96111bd565b90565b3461121c576111fc3660046102ce565b6112186112076111e1565b61120f6102c0565b9182918261084e565b0390f35b6102c6565b90565b5f1b90565b61123d61123861124292611221565b611224565b6107fd565b90565b61124e5f611229565b90565b611259611245565b90565b3461128c5761126c3660046102ce565b611288611277611251565b61127f6102c0565b9182918261084e565b0390f35b6102c6565b61129a81610482565b036112a157565b5f80fd5b905035906112b282611291565b565b91906040838203126112dc57806112d06112d9925f86016103a0565b936020016112a5565b90565b6102ca565b34611310576112fa6112f43660046112b4565b90612991565b6113026102c0565b8061130c8161050b565b0390f35b6102c6565b9061132761132283610f81565b6108d5565b918252565b5f7f352e302e30000000000000000000000000000000000000000000000000000000910152565b61135d6005611315565b9061136a6020830161132c565b565b611374611353565b90565b61137f61136c565b90565b61138a611377565b90565b346113bd5761139d3660046102ce565b6113b96113a8611382565b6113b06102c0565b91829182610621565b0390f35b6102c6565b90565b6113d96113d46113de926113c2565b6102e3565b6102e0565b90565b6113eb60016113c5565b90565b6113f66113e1565b90565b34611429576114093660046102ce565b6114256114146113ee565b61141c6102c0565b91829182610327565b0390f35b6102c6565b3461145e5761145a6114496114443660046105b0565b6129a7565b6114516102c0565b91829182610327565b0390f35b6102c6565b90916060828403126114985761149561147e845f85016103c3565b9361148c81602086016103c3565b936040016103c3565b90565b6102ca565b346114cc576114b66114b0366004611463565b91612afd565b6114be6102c0565b806114c88161050b565b0390f35b6102c6565b34611501576114fd6114ec6114e73660046105b0565b612b0a565b6114f46102c0565b91829182610327565b0390f35b6102c6565b3461153857611522611519366004610eea565b93929092612b6d565b61152a6102c0565b806115348161050b565b0390f35b6102c6565b7f9f2df0fed2c77648de5860a4cc508cd0818c85b8b8a1ab4ceeef8d981c8956a690565b61156961153d565b90565b3461159c5761157c3660046102ce565b611598611587611561565b61158f6102c0565b9182918261084e565b0390f35b6102c6565b346115d0576115ba6115b4366004610ae2565b90612ba6565b6115c26102c0565b806115cc8161050b565b0390f35b6102c6565b7f65d7a28e3265b37a6474929f336521b332c1681b933f6cb9f3376673440d862a90565b6116016115d5565b90565b34611634576116143660046102ce565b61163061161f6115f9565b6116276102c0565b9182918261084e565b0390f35b6102c6565b9190604083820312611661578061165561165e925f86016103a0565b936020016103a0565b90565b6102ca565b346116975761169361168261167c366004611639565b90612bc8565b61168a6102c0565b91829182610494565b0390f35b6102c6565b91909160a081840312611706576116b5835f83016103a0565b926116c381602084016103a0565b926116d182604085016103c3565b926116df83606083016103c3565b92608082013567ffffffffffffffff8111611701576116fe92016109e9565b90565b610371565b6102ca565b3461173d5761172761171e36600461169c565b93929092612bf9565b61172f6102c0565b806117398161050b565b0390f35b6102c6565b7f189ab7a9244df0848122154315af71fe140f3db0fe014031783b0946b8c9d2e390565b61176e611742565b90565b346117a1576117813660046102ce565b61179d61178c611766565b6117946102c0565b9182918261084e565b0390f35b6102c6565b906020806117c8936117be5f8201515f860190610d1a565b0151910190610d1a565b565b91906117dd905f604085019401906117a6565b565b3461180f5761180b6117fa6117f53660046105b0565b612cf9565b6118026102c0565b918291826117ca565b0390f35b6102c6565b5f80fd5b5f90565b61183061182b611835926102e0565b6102e3565b6102e0565b90565b906118429061181c565b5f5260205260405f2090565b61186261185d61186792610375565b6102e3565b610375565b90565b6118739061184e565b90565b61187f9061186a565b90565b9061188c90611876565b5f5260205260405f2090565b5f1c90565b90565b6118ac6118b191611898565b61189d565b90565b6118be90546118a0565b90565b6118e9906118e46118ee936118d4611818565b505f6118de612d18565b01611838565b611882565b6118b4565b90565b5f90565b611907906119016118f1565b50612d3c565b90565b906119249161191f61191a6111bd565b612da4565b611975565b565b906119309061181c565b5f5260205260405f2090565b906119485f1991611224565b9181191691161790565b90565b9061196a6119656119719261181c565b611952565b825461193c565b9055565b61197e81612db8565b6119938261198e60018490611926565b611955565b6119d26119c07fe93eb4a4f7f6a151b5b8427e140272eec901b6af55785b972d487a5ec2bb5d199261181c565b926119c96102c0565b91829182610327565b0390a2565b906119e19161190a565b565b606090565b90565b634e487b7160e01b5f52602260045260245ffd5b9060016002830492168015611a1f575b6020831014611a1a57565b6119eb565b91607f1691611a0f565b611a3390546119ff565b90565b611a4a611a45611a4f92611221565b6102e3565b6102e0565b90565b905090565b5f5260205f2090565b905f9291805490611a7a611a73836119ff565b8094611a52565b916001811690815f14611acc5750600114611a95575b505050565b611aa29192939450611a57565b5f905b838210611ab857505001905f8080611a90565b600181602092548486015201910190611aa5565b92949550505060ff191682528015150201905f8080611a90565b5f7f2f00000000000000000000000000000000000000000000000000000000000000910152565b611b1960018092611a52565b611b2281611ae6565b0190565b611b4b611b4292602092611b39816105ce565b94858093611a52565b938491016105db565b0190565b5f7f2e6a736f6e000000000000000000000000000000000000000000000000000000910152565b611b8260058092611a52565b611b8b81611b4f565b0190565b91611ba8611ba3611bb394611bae94611a60565b611b0d565b90611b26565b611b76565b90565b90565b611bc16119e3565b50611bd4611bcf60036119e8565b611a29565b611be6611be05f611a36565b916102e0565b14611c2c57611c2990611c24611bfd600392612fd8565b91611c15611c096102c0565b93849260208401611b8f565b602082018103825203826108ac565b611bb6565b90565b611c3590612f1a565b90565b611c40611818565b50611c546001611c4e613081565b016118b4565b90565b90611c76969594939291611c71611c6c61153d565b612da4565b611c78565b565b91611c8d969492959391909192939495613177565b565b90611c9e969594939291611c57565b565b5f90565b611cad906107fd565b90565b90611cba90611ca4565b5f5260205260405f2090565b90565b611cd5611cda91611898565b611cc6565b90565b611ce79054611cc9565b90565b6001611d0b611d1192611cfb611ca0565b505f611d056132f8565b01611cb0565b01611cdd565b90565b611d1d90610380565b9052565b916020611d42929493611d3b60408201965f830190611d14565b0190611d14565b565b949391929092611d52613320565b86611d65611d5f83610380565b91610380565b141580611da3575b611d835750611d819495939091929361336a565b565b8690611d9f5f92839263711bec9160e11b845260048401611d21565b0390fd5b50611db8611db2888390612bc8565b15610482565b611d6d565b90611dd891611dd3611dce82611cea565b612da4565b611dda565b565b90611de491613442565b50565b90611df191611dbd565b565b611e0a611e0f91611e02611818565b506001611926565b6118b4565b90565b9080611e2d611e27611e22613320565b610380565b91610380565b03611e3e57611e3b916134f9565b50565b5f63334bd91960e11b815280611e566004820161050b565b0390fd5b90611e7491611e6f611e6a6111bd565b612da4565b611e76565b565b611e7f81612db8565b611e9382611e8e5f8490611926565b611955565b611ed2611ec07f44ecfc706d63e347851cfd40acfa6cf2e3a41faa3e8b460210c03938e84a91ad9261181c565b92611ec96102c0565b91829182610327565b0390a2565b90611ee191611e5a565b565b611ef3611eee6115d5565b612da4565b611efb611efd565b565b611f0561360f565b565b611f0f611ee3565b565b606090565b5190565b916020611f3b929493611f3460408201965f83019061031a565b019061031a565b565b90611f4f611f4a836108ea565b6108d5565b918252565b369037565b90611f7e611f6683611f3d565b92602080611f7486936108ea565b9201910390611f54565b565b6001611f8c91016102e0565b90565b634e487b7160e01b5f52603260045260245ffd5b90611fad82610d07565b811015611fbe576020809102010190565b611f8f565b90611fcd906102e0565b9052565b90611fda611f11565b50611fe482611f16565b611ffe611ff8611ff384610d07565b6102e0565b916102e0565b036120885761201461200f83611f16565b611f59565b9161201e5f611a36565b5b8061203a61203461202f85611f16565b6102e0565b916102e0565b10156120825761207d90612078612066612055858490613619565b61206087859061362f565b906118c1565b6120738791849092611fa3565b611fc3565b611f80565b61201f565b50505090565b61209461209a91610d07565b91611f16565b906120b55f928392635b05999160e01b845260048401611f1a565b0390fd5b906120cb916120c6613651565b6120cd565b565b906120e0916120db8161370b565b61376d565b565b906120ec916120b9565b565b612100906120fa6118f1565b50612b0a565b61211261210c5f611a36565b916102e0565b1190565b6121279061212261386b565b612175565b90565b90565b61214161213c6121469261212a565b611224565b6107fd565b90565b6121727f360894a13ba1a3210667c828492db98dca3e2076cc3735a920a3ca505d382bbc61212d565b90565b5061217e612149565b90565b61219161218c611ca0565b612116565b90565b60ff1690565b6121a66121ab91611898565b612194565b90565b6121b8905461219a565b90565b6121c36118f1565b506121d65f6121d06138c9565b016121ae565b90565b906121f6949392916121f16121ec61153d565b612da4565b6121f8565b565b9161220994929391909192936138ed565b565b90612218949392916121d9565b565b60401c90565b61222c6122319161221a565b612194565b90565b61223e9054612220565b90565b67ffffffffffffffff1690565b61225a61225f91611898565b612241565b90565b61226c905461224e565b90565b67ffffffffffffffff1690565b61229061228b61229592611221565b6102e3565b61226f565b90565b6122ac6122a76122b1926113c2565b6102e3565b61226f565b90565b6122bd9061186a565b90565b906122d367ffffffffffffffff91611224565b9181191691161790565b6122f16122ec6122f69261226f565b6102e3565b61226f565b90565b90565b9061231161230c612318926122dd565b6122f9565b82546122c0565b9055565b60401b90565b9061233668ff00000000000000009161231c565b9181191691161790565b61234990610482565b90565b90565b9061236461235f61236b92612340565b61234c565b8254612322565b9055565b61237890612298565b9052565b919061238f905f6020850194019061236f565b565b9061239a61399f565b916123af6123a95f8501612234565b15610482565b916123bb5f8501612262565b806123ce6123c85f61227c565b9161226f565b14806124e8575b906123e96123e36001612298565b9161226f565b14806124c0575b6123fb909115610482565b90816124af575b506124935761242b916124206124186001612298565b5f87016122fc565b83612481575b6126eb565b612433575b50565b612440905f80910161234f565b60016124787fc7f505b2f371ae2175ee4913f4499e1f2633a7b5936321eed1cdaeb6115181d29161246f6102c0565b9182918261237c565b0390a15f612430565b61248e60015f870161234f565b612426565b5f63f92ee8a960e01b8152806124ab6004820161050b565b0390fd5b6124ba915015610482565b5f612402565b506123fb6124cd306122b4565b3b6124e06124da5f611a36565b916102e0565b1490506123f0565b50836123d5565b6124f85f611315565b90565b6125036124ef565b90565b601f602091010490565b1b90565b9190600861252f9102916125295f1984612510565b92612510565b9181191691161790565b919061254f61254a6125579361181c565b611952565b908354612514565b9055565b61256d91612567611818565b91612539565b565b5b81811061257b575050565b806125885f60019361255b565b01612570565b9190601f811161259e575b505050565b6125aa6125cf93611a57565b9060206125b684612506565b830193106125d7575b6125c890612506565b019061256f565b5f8080612599565b91506125c8819290506125bf565b1c90565b906125f9905f19906008026125e5565b191690565b81612608916125e9565b906002021790565b9061261a816105ce565b9067ffffffffffffffff82116126da5761263e8261263885546119ff565b8561258e565b602090601f831160011461267257918091612661935f92612666575b50506125fe565b90555b565b90915001515f8061265a565b601f1983169161268185611a57565b925f5b8181106126c2575091600293918560019694106126a8575b50505002019055612664565b6126b8910151601f8416906125e9565b90555f808061269c565b91936020600181928787015181550195019201612684565b610898565b906126e991612610565b565b9061271a612760926126fb6139b4565b6127036139c8565b61271361270e6124fb565b6139f0565b60036126df565b61272c612725611245565b8290613442565b5061273f6127386111bd565b8290613442565b5061275261274b6115d5565b8290613442565b5061275b611742565b613442565b50565b9061276d91612391565b565b61277f61277a6115d5565b612da4565b612787612789565b565b612791613a65565b565b61279b61276f565b565b6127b36127b8916127ac611818565b505f611926565b6118b4565b90565b906127c590611876565b5f5260205260405f2090565b612800915f6127f56127fb936127e56118f1565b50826127ef6132f8565b01611cb0565b016127bb565b6121ae565b90565b9061281d916128186128136111bd565b612da4565b61293c565b565b5090565b9161282e908261281f565b9067ffffffffffffffff82116128ed576128528261284c85546119ff565b8561258e565b5f90601f831160011461288557918091612874935f92612879575b50506125fe565b90555b565b90915001355f8061286d565b601f1983169161289485611a57565b925f5b8181106128d5575091600293918560019694106128bb575b50505002019055612877565b6128cb910135601f8416906125e9565b90555f80806128af565b91936020600181928787013581550195019201612897565b610898565b906128fd9291612823565b565b9190612919816129128161291e956105d2565b80956109a8565b6105e6565b0190565b90916129399260208301925f8185039101526128ff565b90565b61294981839060036128f2565b907f24a9152dc695ecc801ad580886331ee12d7aac0fa2ae341a5ae3c2ccae36cb4f916129806129776102c0565b92839283612922565b0390a1565b9061298f91612803565b565b6129a59161299d613320565b919091613a6f565b565b6129c2906129b3611818565b506129bd81612db8565b612b0a565b90565b906129e092916129db6129d66111bd565b612da4565b612a51565b565b6129ec60406108d5565b90565b906129f99061181c565b5f5260205260405f2090565b612a0f90516102e0565b90565b90612a3d60206001612a4394612a355f8201612a2f5f8801612a05565b90611955565b019201612a05565b90611955565b565b90612a4f91612a12565b565b612a5a81612db8565b81612a6d612a675f611a36565b916102e0565b03612aef575b612aa982612a9885612a8f612a866129e2565b935f8501611fc3565b60208301611fc3565b612aa4600284906129ef565b612a45565b9091612ad57f89a679a8cb5d71cd5bb03fbfabf8d938846dc7f99e8af6911dcef30be5a1d8139261181c565b92612aea612ae16102c0565b92839283611f1a565b0390a2565b612af882612db8565b612a73565b90612b0892916129c5565b565b612b29612b2e91612b19611818565b505f612b23613081565b01611926565b6118b4565b90565b90612b4e94939291612b49612b446111bd565b612da4565b612b50565b565b91612b6b9492939193612b61613b8f565b93909192936138ed565b565b90612b7a94939291612b31565b565b90612b9791612b92612b8d82611cea565b612da4565b612b99565b565b90612ba3916134f9565b50565b90612bb091612b7c565b565b90612bbc90611876565b5f5260205260405f2090565b612bf691612bec612bf192612bdb6118f1565b506001612be6612d18565b01612bb2565b6127bb565b6121ae565b90565b949391929092612c07613320565b86612c1a612c1483610380565b91610380565b141580612c58575b612c385750612c3694959390919293613c53565b565b8690612c545f92839263711bec9160e11b845260048401611d21565b0390fd5b50612c6d612c67888390612bc8565b15610482565b612c22565b612c7c60406108d5565b90565b5f90565b612c8b612c72565b9060208083612c98612c7f565b815201612ca3612c7f565b81525050565b612cb1612c83565b90565b90612ceb612ce26001612cc5612c72565b94612cdc612cd45f83016118b4565b5f8801611fc3565b016118b4565b60208401611fc3565b565b612cf690612cb4565b90565b612d10612d1591612d08612ca9565b5060026129ef565b612ced565b90565b7f88be536d5240c274a3b1d3a1be54482fd9caa294f08c62a7cde569f49a3c450090565b612d446118f1565b5080612d5f612d59636cdb3d1360e11b610435565b91610435565b148015612d83575b908115612d73575b5090565b612d7d9150613cfe565b5f612d6f565b5080612d9e612d986303a24d0760e21b610435565b91610435565b14612d67565b612db690612db0613320565b90613d61565b565b80612dd2612dcc612dc76113e1565b6102e0565b916102e0565b141580612e28575b80612e06575b612de75750565b612e02905f9182916311fbc14560e11b835260048301610327565b0390fd5b5080612e21612e1b612e16610302565b6102e0565b916102e0565b1415612de0565b5080612e43612e3d612e38610563565b6102e0565b916102e0565b1415612dda565b60209181520190565b905f9291805490612e6d612e66836119ff565b8094612e4a565b916001811690815f14612ec45750600114612e88575b505050565b612e959192939450611a57565b915f925b818410612eac57505001905f8080612e83565b60018160209295939554848601520191019290612e99565b92949550505060ff19168252151560200201905f8080612e83565b90612ee991612e53565b90565b90612f0c612f0592612efc6102c0565b93848092612edf565b03836108ac565b565b612f1790612eec565b90565b50612f236119e3565b50612f376002612f31612d18565b01612f0e565b90565b90612f4591016102e0565b90565b369037565b90612f72612f5a83611315565b92602080612f688693610f81565b9201910390612f48565b565b6001612f8091036102e0565b90565b90565b612f9a612f95612f9f92612f83565b6102e3565b6102e0565b90565b634e487b7160e01b5f52601260045260245ffd5b612fc2612fc8916102e0565b916102e0565b908115612fd3570490565b612fa2565b612fe06119e3565b50612ffd612fed82613ef1565b612ff760016113c5565b90612f3a565b9061300782612f4d565b91613010611818565b5060208301015b60011561307a5761302a61305691612f74565b916f181899199a1a9b1b9c1cb0b131b232b360811b600a82061a8353613050600a612f86565b90612fb6565b806130696130635f611a36565b916102e0565b146130745790613017565b50505b90565b5050613077565b7f4a593662ee04d27b6a00ebb31be7fe0c102c2ade82a7c5d764f2df05dc4e280090565b5090565b91908110156130b9576020020190565b611f8f565b356130c8816103af565b90565b634e487b7160e01b5f52601160045260245ffd5b6130ee6130f4919392936102e0565b926102e0565b82018092116130ff57565b6130cb565b613113613119919392936102e0565b926102e0565b820391821161312457565b6130cb565b604090613152613159949695939661314860608401985f85019061031a565b602083019061031a565b019061031a565b565b613166913691610907565b90565b6131749136916109b3565b90565b95909392949691966131885f611a36565b5b806131a66131a061319b898d906130a5565b6102e0565b916102e0565b10156132c4576131c86131c36131be888c85916130a9565b6130be565b612db8565b6131ef6131ea5f6131e46131df8d8b9087916130a9565b6130be565b90611926565b6118b4565b806132026131fc5f611a36565b916102e0565b03613217575b5061321290611f80565b613189565b61323361322e613229898d86916130a9565b6130be565b612b0a565b6132518161324b6132468c8b88916130a9565b6130be565b906130df565b61326361325d846102e0565b916102e0565b1161326e5750613208565b6132c06132a98a926132a361329e8f886132958f8f93613290919084916130a9565b6130be565b979190916130a9565b6130be565b94613104565b5f93849363a11dbc5360e01b855260048501613129565b0390fd5b506132ea906132e46132f094999396976132f6999894909692979461315b565b9461315b565b93613169565b92614152565b565b7f02dd7bc7dec4dceedda775e58dd541e08a116c6c53815c0bd028192f7b62680090565b5f90565b61332861331c565b503390565b61334161333c61334692611221565b6102e3565b610375565b90565b6133529061332d565b90565b9190613368905f60208501940190611d14565b565b93919290928361338a61338461337f5f613349565b610380565b91610380565b146133e557846133aa6133a461339f5f613349565b610380565b91610380565b146133bf576133bd9493909192936141b6565b565b6133e16133cb5f613349565b5f918291626a0d4560e21b835260048301613355565b0390fd5b6134086133f15f613349565b5f918291632bfa23e760e11b835260048301613355565b0390fd5b9061341860ff91611224565b9181191691161790565b9061343761343261343e92612340565b61234c565b825461340c565b9055565b61344a6118f1565b506134536132f8565b6134676134618385906127d1565b15610482565b5f146134f2576134919061348c5f61348481600194018690611cb0565b0185906127bb565b613422565b9061349a613320565b906134d76134d16134cb7f2f8788117e7eff1d82e926ec794901d17c78024a50270940304540a733656f0d95611ca4565b92611876565b92611876565b926134e06102c0565b806134ea8161050b565b0390a4600190565b5050505f90565b6135016118f1565b5061350a6132f8565b6135158284906127d1565b5f1461359f5761353e906135395f613531818094018690611cb0565b0185906127bb565b613422565b90613547613320565b9061358461357e6135787ff6391f5c32d9c69d2a47ea670b442974b53935d1edc7fd64eb21e047a839171b95611ca4565b92611876565b92611876565b9261358d6102c0565b806135978161050b565b0390a4600190565b5050505f90565b6135ae614272565b6135b66135b8565b565b6135cc6135c36138c9565b5f809101613422565b6135d4613320565b61360a7f5db9ee0a495bf2e6ff9c91a7834c1ba4fdd244a5e8aa4e537bd38aeae4b073aa916136016102c0565b91829182613355565b0390a1565b6136176135a6565b565b906020809161362661331c565b50029101015190565b906020809161363c611818565b50029101015190565b61364e9061186a565b90565b61365a30613645565b61368c6136867f0000000000000000000000000000000000000000000000000000000000000000610380565b91610380565b1480156136b6575b61369a57565b5f63703e46dd60e11b8152806136b26004820161050b565b0390fd5b506136bf6142d1565b6136f16136eb7f0000000000000000000000000000000000000000000000000000000000000000610380565b91610380565b1415613694565b50613709613704611742565b612da4565b565b613714906136f8565b565b61371f9061184e565b90565b61372b90613716565b90565b6137379061186a565b90565b60e01b90565b9050519061374d82610800565b565b9060208282031261376857613765915f01613740565b90565b6102ca565b919061379b602061378561378086613722565b61372e565b6352d1902d906137936102c0565b93849261373a565b825281806137ab6004820161050b565b03915afa80915f9261383b575b50155f146137ec5750509060016137cd57505b565b6137e8905f918291634c9c8ce360e01b835260048301613355565b0390fd5b92836138076138016137fc612149565b6107fd565b916107fd565b0361381c576138179293506142fb565b6137cb565b613837845f918291632a87526960e21b83526004830161084e565b0390fd5b61385d91925060203d8111613864575b61385581836108ac565b81019061374f565b905f6137b8565b503d61384b565b61387430613645565b6138a66138a07f0000000000000000000000000000000000000000000000000000000000000000610380565b91610380565b036138ad57565b5f63703e46dd60e11b8152806138c56004820161050b565b0390fd5b7fcd5ed15c6e187e77e9aee88184c21f4f2182ab5827cb3b7e07fbedcd63f0330090565b949394929190926138fd84612db8565b61391061390b5f8690611926565b6118b4565b8061392361391d5f611a36565b916102e0565b03613943575b50613941949561393b91949293613169565b92614384565b565b61394c85612b0a565b6139578185906130df565b613969613963846102e0565b916102e0565b116139745750613929565b61399b6139848592889394613104565b5f93849363a11dbc5360e01b855260048501613129565b0390fd5b6139a761443c565b90565b6139b2614450565b565b6139bc6139aa565b565b6139c6614450565b565b6139d06139be565b565b6139e3906139de614450565b6139e5565b565b6139ee906144a1565b565b6139f9906139d2565b565b613a036144ac565b613a0b613a0d565b565b613a22613a186138c9565b5f60019101613422565b613a2a613320565b613a607f62e78cea01bee320cd4e420270b5ea74000d11b0c9f74754ebdbfc544b05a25891613a576102c0565b91829182613355565b0390a1565b613a6d6139fb565b565b919091613a7a612d18565b83613a95613a8f613a8a5f613349565b610380565b91610380565b14613b0c57613abc90613ab7613ab060018693018590612bb2565b86906127bb565b613422565b919091613b07613af5613aef7f17307eab39ab6107e8899845ad3d59bd9653f200f220920489ca2b5937696c3193611876565b93611876565b93613afe6102c0565b91829182610494565b0390a3565b613b2e613b185f613349565b5f91829162ced3e160e81b835260048301613355565b0390fd5b90565b613b49613b44613b4e92613b32565b6102e3565b6102e0565b90565b90565b613b68613b63613b6d92613b51565b6102e3565b6102e0565b90565b90565b613b87613b82613b8c92613b70565b6102e3565b6102e0565b90565b4680613ba4613b9e60016113c5565b916102e0565b148015613c38575b8015613c1d575b8015613c01575b908115613be5575b50613bc957565b5f6305de2cfb60e31b815280613be16004820161050b565b0390fd5b9050613bfa613bf4600a612f86565b916102e0565b145f613bc2565b5080613c17613c1161a4b1613b73565b916102e0565b14613bba565b5080613c32613c2c6089613b54565b916102e0565b14613bb3565b5080613c4d613c476038613b35565b916102e0565b14613bac565b9092939183613c72613c6c613c675f613349565b610380565b91610380565b14613cd75781613c92613c8c613c875f613349565b610380565b91610380565b14613cb157613caf94613ca4916144d6565b9193909192936141b6565b565b613cd3613cbd5f613349565b5f918291626a0d4560e21b835260048301613355565b0390fd5b613cfa613ce35f613349565b5f918291632bfa23e760e11b835260048301613355565b0390fd5b613d066118f1565b5080613d21613d1b637965db0b60e01b610435565b91610435565b14908115613d2e575b5090565b613d38915061450d565b5f613d2a565b916020613d5f929493613d5860408201965f830190611d14565b0190610841565b565b90613d76613d708383906127d1565b15610482565b613d7e575050565b613d985f92839263e2517d3f60e01b845260048401613d3e565b0390fd5b90565b613db3613dae613db892613d9c565b6102e3565b6102e0565b90565b90565b613dd2613dcd613dd792613dbb565b6102e3565b6102e0565b90565b90565b613df1613dec613df692613dda565b6102e3565b6102e0565b90565b90565b613e10613e0b613e1592613df9565b6102e3565b6102e0565b90565b90565b613e2f613e2a613e3492613e18565b6102e3565b6102e0565b90565b90565b613e4e613e49613e5392613e37565b6102e3565b6102e0565b90565b90565b613e6d613e68613e7292613e56565b6102e3565b6102e0565b90565b90565b613e8c613e87613e9192613e75565b6102e3565b6102e0565b90565b90565b613eab613ea6613eb092613e94565b6102e3565b6102e0565b90565b90565b613eca613ec5613ecf92613eb3565b6102e3565b6102e0565b90565b90565b613ee9613ee4613eee92613ed2565b6102e3565b6102e0565b90565b613ef9611818565b50613f035f611a36565b9080613f32613f2c7a184f03e93ff9f4daa797ed6e38ed64bf6a1f010000000000000000613d9f565b916102e0565b101561410a575b80613f5a613f546d04ee2d6d415b85acef8100000000613ddd565b916102e0565b10156140cf575b80613f7b613f75662386f26fc10000613e1b565b916102e0565b101561409b575b80613f99613f936305f5e100613e59565b916102e0565b101561406a575b80613fb5613faf612710613e97565b916102e0565b101561403b575b80613fd0613fca6064613ed5565b916102e0565b101561400d575b613fea613fe4600a612f86565b916102e0565b1015613ff4575b90565b6140089061400260016113c5565b90612f3a565b613ff1565b6140246140359161401e6064613ed5565b90612fb6565b9161402f6002610547565b90612f3a565b90613fd7565b6140536140649161404d612710613e97565b90612fb6565b9161405e6004613eb6565b90612f3a565b90613fbc565b6140846140959161407e6305f5e100613e59565b90612fb6565b9161408f6008613e78565b90612f3a565b90613fa0565b6140b86140c9916140b2662386f26fc10000613e1b565b90612fb6565b916140c36010613e3a565b90612f3a565b90613f82565b6140f3614104916140ed6d04ee2d6d415b85acef8100000000613ddd565b90612fb6565b916140fe6020613dfc565b90612f3a565b90613f61565b61413b61414c916141357a184f03e93ff9f4daa797ed6e38ed64bf6a1f010000000000000000613d9f565b90612fb6565b916141466040613dbe565b90612f3a565b90613f39565b919290928261417161416b6141665f613349565b610380565b91610380565b1461418f5761418d936141835f613349565b93909192936141b6565b565b6141b261419b5f613349565b5f918291632bfa23e760e11b835260048301613355565b0390fd5b929391936141c88483879084926145af565b816141e36141dd6141d85f613349565b610380565b91610380565b036141f0575b5050505050565b6141f8613320565b9161420286610d07565b61421561420f60016113c5565b916102e0565b145f1461425c576142456142356142519761422f5f611a36565b9061362f565b9261423f5f611a36565b9061362f565b92949091929394614aa6565b5b5f808080806141e9565b61426d9591929490919293946148f6565b614252565b61428361427d6121bb565b15610482565b61428957565b5f638dfc202b60e01b8152806142a16004820161050b565b0390fd5b60018060a01b031690565b6142bc6142c191611898565b6142a5565b90565b6142ce90546142b0565b90565b6142d961331c565b506142f45f6142ee6142e9612149565b614c05565b016142c4565b90565b5190565b9061430582614c46565b816143307fbc7cd75a20ee27fd9adebab32041f755214dbc6bffa90cc0225b39da2e5c2d3b91611876565b906143396102c0565b806143438161050b565b0390a261434f816142f7565b61436161435b5f611a36565b916102e0565b115f146143755761437191614cd1565b505b565b505061437f614c9b565b614373565b919290826143a261439c6143975f613349565b610380565b91610380565b146143ca576143c8936143b4916144d6565b906143be5f613349565b93909192936141b6565b565b6143ed6143d65f613349565b5f918291632bfa23e760e11b835260048301613355565b0390fd5b90565b61440861440361440d926143f1565b611224565b6107fd565b90565b6144397ff0c57e16840df040f15088dc2f81fe391c3923bec73e23a9662efc9c229c6a006143f4565b90565b614444611ca0565b5061444d614410565b90565b61446161445b614da4565b15610482565b61446757565b5f631afcd79f60e31b81528061447f6004820161050b565b0390fd5b6144949061448f614450565b614496565b565b61449f90614dc2565b565b6144aa90614483565b565b6144b46121bb565b6144ba57565b5f63d93c066560e01b8152806144d26004820161050b565b0390fd5b916144df611f11565b506144e8611f11565b5060405192600184526020840152604083019160018352602083015260408201604052565b6145156118f1565b5061452f6145296301ffc9a760e01b610435565b91610435565b1490565b61456861456f9461455e606094989795614554608086019a5f87019061031a565b6020850190611d14565b604083019061031a565b019061031a565b565b6145a66145ad9461459c606094989795614592608086019a5f87019061031a565b602085019061031a565b604083019061031a565b019061031a565b565b929190926145bb6144ac565b836145d66145d06145cb5f613349565b610380565b91610380565b036145ee575b906145ec93929192909192614de6565b565b92936145f95f611a36565b5b8061461561460f61460a86610d07565b6102e0565b916102e0565b10156147bb5761462e614629848390611fa3565b612a05565b61464161463c868490611fa3565b612a05565b61465561465060018490611926565b6118b4565b90816146696146635f611a36565b916102e0565b03614763575b5050614685614680600283906129ef565b612ced565b906146915f8301612a05565b6146a361469d5f611a36565b916102e0565b14158061473d575b6146c0575b50506146bb90611f80565b6145fa565b6146d5886146cf5f8501612a05565b906118c1565b90816146f46146ee6146e960208701612a05565b6102e0565b916102e0565b106146ff57506146b0565b614739909161471b60206147145f8701612a05565b9501612a05565b6147236102c0565b94859463500e814160e11b865260048601614571565b0390fd5b5061474a60208301612a05565b61475c6147565f611a36565b916102e0565b14156146ab565b614777906147728a85906118c1565b6130df565b908161478b614785836102e0565b916102e0565b111561466f576147b789918492936147a16102c0565b9485946317a5ab4560e31b865260048601614533565b0390fd5b509391906145ec9390919293506145dc565b6147d69061184e565b90565b6147e2906147cd565b90565b6147ee9061186a565b90565b905051906147fe82610441565b565b9060208282031261481957614816915f016147f1565b90565b6102ca565b60209181520190565b61484661484f6020936148549361483d816142f7565b9384809361481e565b958691016105db565b6105e6565b0190565b9390614892906148ae96946148856148a09561487b60a08a01945f8b0190611d14565b6020890190611d14565b8682036040880152610d3e565b908482036060860152610d3e565b916080818403910152614827565b90565b906148c36148be83610985565b6108d5565b918252565b606090565b3d5f146148e8576148dd3d6148b1565b903d5f602084013e5b565b6148f06148c8565b906148e6565b94909194939293853b61491161490b5f611a36565b916102e0565b1161491f575b505050505050565b5f61495b9161496660209661493b6149368b6147d9565b6147e5565b9563bc197c8193979991909161494f6102c0565b9a8b998a98899761373a565b875260048701614858565b03925af180915f92614a25575b50155f146149e25750600161498f57505b5f8080808080614917565b6149976148cd565b906149a1826142f7565b6149b36149ad5f611a36565b916102e0565b145f146149d9576149d5905f918291632bfa23e760e11b835260048301613355565b0390fd5b50602081519101fd5b6149fb6149f563bc197c8160e01b610435565b91610435565b03614a065750614984565b614a21905f918291632bfa23e760e11b835260048301613355565b0390fd5b614a4791925060203d8111614a4e575b614a3f81836108ac565b810190614800565b905f614973565b503d614a35565b9193614a8c614aa39694614a82614a969497614a7860a08801995f890190611d14565b6020870190611d14565b604085019061031a565b606083019061031a565b6080818403910152614827565b90565b94909194939293853b614ac1614abb5f611a36565b916102e0565b11614acf575b505050505050565b5f614b0b91614b16602096614aeb614ae68b6147d9565b6147e5565b9563f23a6e61939799919091614aff6102c0565b9a8b998a98899761373a565b875260048701614a55565b03925af180915f92614bd5575b50155f14614b9257506001614b3f57505b5f8080808080614ac7565b614b476148cd565b90614b51826142f7565b614b63614b5d5f611a36565b916102e0565b145f14614b8957614b85905f918291632bfa23e760e11b835260048301613355565b0390fd5b50602081519101fd5b614bab614ba563f23a6e6160e01b610435565b91610435565b03614bb65750614b34565b614bd1905f918291632bfa23e760e11b835260048301613355565b0390fd5b614bf791925060203d8111614bfe575b614bef81836108ac565b810190614800565b905f614b23565b503d614be5565b90565b90614c1960018060a01b0391611224565b9181191691161790565b90565b90614c3b614c36614c4292611876565b614c23565b8254614c08565b9055565b803b614c5a614c545f611a36565b916102e0565b14614c7c57614c7a905f614c74614c6f612149565b614c05565b01614c26565b565b614c97905f918291634c9c8ce360e01b835260048301613355565b0390fd5b34614cae614ca85f611a36565b916102e0565b11614cb557565b5f63b398979f60e01b815280614ccd6004820161050b565b0390fd5b90614ce590614cde6148c8565b5082614fb7565b8080614d61575b5f14614cff575050614cfc614fe8565b90565b5f14614d2457614d20905f918291639996b31560e01b835260048301613355565b0390fd5b614d2c614fd0565b614d3e614d385f611a36565b916102e0565b115f03614fdd575f63d6bda27560e01b815280614d5d6004820161050b565b0390fd5b50614d6a614fd0565b614d7c614d765f611a36565b916102e0565b118015614d89575b614cec565b50813b614d9e614d985f611a36565b916102e0565b11614d84565b614dac6118f1565b50614dbf5f614db961399f565b01612234565b90565b614dd6906002614dd0612d18565b016126df565b565b90614de391036102e0565b90565b90614def613081565b91614dfe818386908892615073565b614e18614e12614e0d5f613349565b610380565b91610380565b14614efd575b614e38614e32614e2d5f613349565b610380565b91610380565b14614e43575b505050565b614e4c5f611a36565b92614e565f611a36565b935b84614e73614e6d614e6887610d07565b6102e0565b916102e0565b1015614ecf57614ec3614ec991614e8b84889061362f565b614ebd81614eb7614ea85f8a01614ea28d8d61362f565b90611926565b91614eb2836118b4565b614dd8565b90611955565b90612f3a565b94611f80565b93614e58565b614ef59450614eef92935060019150920191614eea836118b4565b614dd8565b90611955565b5f8080614e3e565b92614f075f611a36565b94614f115f611a36565b955b86614f2e614f28614f2388610d07565b6102e0565b916102e0565b1015614f8d57614f81614f879188614f7b87614f75614f668b614f60614f558c889061362f565b965f8896019261362f565b90611926565b91614f70836118b4565b6130df565b90611955565b906130df565b96611f80565b95614f13565b614fb2919650949194614fac6001850191614fa7836118b4565b6130df565b90611955565b614e1e565b5f918291614fc36118f1565b50602082519201905af490565b614fd8611818565b503d90565b6040513d5f823e3d90fd5b614ff06148c8565b50604051903d82523d5f602084013e3d6020018201604052565b61503f6150469461503560609498979561502b608086019a5f870190611d14565b602085019061031a565b604083019061031a565b019061031a565b565b90916150626150709360408401908482035f860152610d3e565b916020818403910152610d3e565b90565b9392919091615080612d18565b9161508a81610d07565b6150a461509e61509985610d07565b6102e0565b916102e0565b03615324576150b1613320565b946150bb5f611a36565b5b806150d76150d16150cc86610d07565b6102e0565b916102e0565b101561521a576150e883829061362f565b6150f385839061362f565b908961510f6151096151045f613349565b610380565b91610380565b03615181575b9061514392918861513661513061512b5f613349565b610380565b91610380565b03615148575b5050611f80565b6150bc565b61517461516561515e61517a94935f8c01611838565b8b90611882565b9161516f836118b4565b6130df565b90611955565b5f8061513c565b6151a061519b6151945f8a018490611838565b8c90611882565b6118b4565b806151b36151ad856102e0565b916102e0565b106151f057906151e76151cc6151439594938490614dd8565b6151e28d6151dd5f8d018690611838565b611882565b611955565b90919250615115565b90615216908b92936152006102c0565b9485946303dee4c560e01b86526004860161500a565b0390fd5b50959193925061522981610d07565b61523c61523660016113c5565b916102e0565b145f146152c557615259615269916152535f611a36565b9061362f565b936152635f611a36565b9061362f565b93909192936152aa6152a461529e7fc3d58168c5ae7397731d063d5bbf3d657854427343f4c083240f7aacaa2d0f6294611876565b94611876565b94611876565b946152bf6152b66102c0565b92839283611f1a565b0390a45b565b9293909192936153076153016152fb7f4a39dc06d4c0dbc64b70af90fd698a233a518aa5d07e595d983b8c0526c8f7fb94611876565b94611876565b94611876565b9461531c6153136102c0565b92839283615048565b0390a46152c3565b61533061533691610d07565b91610d07565b906153515f928392635b05999160e01b845260048401611f1a565b0390fdfea2646970667358221220b990564999fe937de47ce6c0521b88eebbfcb5d9376d77c25b85ae98a932b8fd64736f6c634300081e0033","linkReferences":{}},"methodIdentifiers":{"DEFAULT_ADMIN_ROLE()":"a217fddf","MINTER_ROLE()":"d5391393","PAUSER_ROLE()":"e63ab1e9","POLICY_ADMIN_ROLE()":"a17620c1","TOKEN_EXPLORER()":"00a0a52a","TOKEN_OIL()":"06be414f","TOKEN_POWER()":"ad7975de","UPGRADER_ROLE()":"f72c0d8b","UPGRADE_INTERFACE_VERSION()":"ad3cb1cc","adminMint(address,uint256,uint256,bytes)":"c238d1ee","balanceOf(address,uint256)":"00fdd58e","balanceOfBatch(address[],uint256[])":"4e1273f4","dependencyOf(uint256)":"febadb77","exists(uint256)":"4f558e79","getRoleAdmin(bytes32)":"248a9ca3","getTotalHoldings(uint256)":"adfe3600","grantRole(bytes32,address)":"2f2ff15d","hasRole(bytes32,address)":"91d14854","initialize(string,address)":"7ab4339d","isApprovedForAll(address,address)":"e985e9c5","maxSupply(uint256)":"869f7594","mint(address,uint256,uint256,bytes)":"731133e9","mintBatch(address,uint256[],uint256[],bytes)":"1f7fdffa","pause()":"8456cb59","paused()":"5c975abb","proxiableUUID()":"52d1902d","renounceRole(bytes32,address)":"36568abe","revokeRole(bytes32,address)":"d547741f","safeBatchTransferFrom(address,address,uint256[],uint256[],bytes)":"2eb2c2d6","safeTransferFrom(address,address,uint256,uint256,bytes)":"f242432a","setApprovalForAll(address,bool)":"a22cb465","setBaseUri(string)":"a0bcfc7f","setDependency(uint256,uint256,uint256)":"b9bbd2a1","setMaxSupply(uint256,uint256)":"37da577c","setWalletCap(uint256,uint256)":"03a1b533","supportsInterface(bytes4)":"01ffc9a7","totalSupply()":"18160ddd","totalSupply(uint256)":"bd85b039","unpause()":"3f4ba83a","upgradeToAndCall(address,bytes)":"4f1ef286","uri(uint256)":"0e89341c","walletCap(uint256)":"31624de2"},"id":62}