{"abi":[{"type":"receive","stateMutability":"payable"},{"type":"function","name":"DEFAULT_ADMIN_ROLE","inputs":[],"outputs":[{"name":"","type":"bytes32","internalType":"bytes32"}],"stateMutability":"view"},{"type":"function","name":"SALE_ADMIN_ROLE","inputs":[],"outputs":[{"name":"","type":"bytes32","internalType":"bytes32"}],"stateMutability":"view"},{"type":"function","name":"TREASURY_ADMIN_ROLE","inputs":[],"outputs":[{"name":"","type":"bytes32","internalType":"bytes32"}],"stateMutability":"view"},{"type":"function","name":"UPGRADER_ROLE","inputs":[],"outputs":[{"name":"","type":"bytes32","internalType":"bytes32"}],"stateMutability":"view"},{"type":"function","name":"UPGRADE_INTERFACE_VERSION","inputs":[],"outputs":[{"name":"","type":"string","internalType":"string"}],"stateMutability":"view"},{"type":"function","name":"WHITELIST_ADMIN_ROLE","inputs":[],"outputs":[{"name":"","type":"bytes32","internalType":"bytes32"}],"stateMutability":"view"},{"type":"function","name":"buy","inputs":[{"name":"id","type":"uint256","internalType":"uint256"},{"name":"amount","type":"uint256","internalType":"uint256"},{"name":"to","type":"address","internalType":"address"}],"outputs":[],"stateMutability":"payable"},{"type":"function","name":"getRoleAdmin","inputs":[{"name":"role","type":"bytes32","internalType":"bytes32"}],"outputs":[{"name":"","type":"bytes32","internalType":"bytes32"}],"stateMutability":"view"},{"type":"function","name":"grantRole","inputs":[{"name":"role","type":"bytes32","internalType":"bytes32"},{"name":"account","type":"address","internalType":"address"}],"outputs":[],"stateMutability":"nonpayable"},{"type":"function","name":"hasRole","inputs":[{"name":"role","type":"bytes32","internalType":"bytes32"},{"name":"account","type":"address","internalType":"address"}],"outputs":[{"name":"","type":"bool","internalType":"bool"}],"stateMutability":"view"},{"type":"function","name":"initialize","inputs":[{"name":"token_","type":"address","internalType":"address"},{"name":"treasury_","type":"address","internalType":"address"},{"name":"admin","type":"address","internalType":"address"}],"outputs":[],"stateMutability":"nonpayable"},{"type":"function","name":"isWhitelisted","inputs":[{"name":"user","type":"address","internalType":"address"}],"outputs":[{"name":"","type":"bool","internalType":"bool"}],"stateMutability":"view"},{"type":"function","name":"pause","inputs":[],"outputs":[],"stateMutability":"nonpayable"},{"type":"function","name":"paused","inputs":[],"outputs":[{"name":"","type":"bool","internalType":"bool"}],"stateMutability":"view"},{"type":"function","name":"priceWei","inputs":[{"name":"","type":"uint256","internalType":"uint256"}],"outputs":[{"name":"","type":"uint256","internalType":"uint256"}],"stateMutability":"view"},{"type":"function","name":"proxiableUUID","inputs":[],"outputs":[{"name":"","type":"bytes32","internalType":"bytes32"}],"stateMutability":"view"},{"type":"function","name":"renounceRole","inputs":[{"name":"role","type":"bytes32","internalType":"bytes32"},{"name":"callerConfirmation","type":"address","internalType":"address"}],"outputs":[],"stateMutability":"nonpayable"},{"type":"function","name":"revokeRole","inputs":[{"name":"role","type":"bytes32","internalType":"bytes32"},{"name":"account","type":"address","internalType":"address"}],"outputs":[],"stateMutability":"nonpayable"},{"type":"function","name":"saleActive","inputs":[],"outputs":[{"name":"","type":"bool","internalType":"bool"}],"stateMutability":"view"},{"type":"function","name":"setPrice","inputs":[{"name":"id","type":"uint256","internalType":"uint256"},{"name":"newPriceWei","type":"uint256","internalType":"uint256"}],"outputs":[],"stateMutability":"nonpayable"},{"type":"function","name":"setSaleActive","inputs":[{"name":"active","type":"bool","internalType":"bool"}],"outputs":[],"stateMutability":"nonpayable"},{"type":"function","name":"setTreasury","inputs":[{"name":"newTreasury","type":"address","internalType":"address"}],"outputs":[],"stateMutability":"nonpayable"},{"type":"function","name":"setWhitelist","inputs":[{"name":"user","type":"address","internalType":"address"},{"name":"whitelisted","type":"bool","internalType":"bool"}],"outputs":[],"stateMutability":"nonpayable"},{"type":"function","name":"setWhitelistBatch","inputs":[{"name":"users","type":"address[]","internalType":"address[]"},{"name":"whitelisted","type":"bool","internalType":"bool"}],"outputs":[],"stateMutability":"nonpayable"},{"type":"function","name":"supportsInterface","inputs":[{"name":"interfaceId","type":"bytes4","internalType":"bytes4"}],"outputs":[{"name":"","type":"bool","internalType":"bool"}],"stateMutability":"view"},{"type":"function","name":"sweep","inputs":[{"name":"to","type":"address","internalType":"address"}],"outputs":[],"stateMutability":"nonpayable"},{"type":"function","name":"token","inputs":[],"outputs":[{"name":"","type":"address","internalType":"contract IExplorerToken"}],"stateMutability":"view"},{"type":"function","name":"treasury","inputs":[],"outputs":[{"name":"","type":"address","internalType":"address"}],"stateMutability":"view"},{"type":"function","name":"unpause","inputs":[],"outputs":[],"stateMutability":"nonpayable"},{"type":"function","name":"upgradeToAndCall","inputs":[{"name":"newImplementation","type":"address","internalType":"address"},{"name":"data","type":"bytes","internalType":"bytes"}],"outputs":[],"stateMutability":"payable"},{"type":"function","name":"whitelist","inputs":[{"name":"","type":"address","internalType":"address"}],"outputs":[{"name":"","type":"bool","internalType":"bool"}],"stateMutability":"view"},{"type":"event","name":"Initialized","inputs":[{"name":"version","type":"uint64","indexed":false,"internalType":"uint64"}],"anonymous":false},{"type":"event","name":"Paused","inputs":[{"name":"account","type":"address","indexed":false,"internalType":"address"}],"anonymous":false},{"type":"event","name":"PriceUpdated","inputs":[{"name":"id","type":"uint256","indexed":true,"internalType":"uint256"},{"name":"priceWei","type":"uint256","indexed":false,"internalType":"uint256"}],"anonymous":false},{"type":"event","name":"Purchased","inputs":[{"name":"buyer","type":"address","indexed":true,"internalType":"address"},{"name":"to","type":"address","indexed":true,"internalType":"address"},{"name":"id","type":"uint256","indexed":true,"internalType":"uint256"},{"name":"amount","type":"uint256","indexed":false,"internalType":"uint256"},{"name":"paid","type":"uint256","indexed":false,"internalType":"uint256"}],"anonymous":false},{"type":"event","name":"RoleAdminChanged","inputs":[{"name":"role","type":"bytes32","indexed":true,"internalType":"bytes32"},{"name":"previousAdminRole","type":"bytes32","indexed":true,"internalType":"bytes32"},{"name":"newAdminRole","type":"bytes32","indexed":true,"internalType":"bytes32"}],"anonymous":false},{"type":"event","name":"RoleGranted","inputs":[{"name":"role","type":"bytes32","indexed":true,"internalType":"bytes32"},{"name":"account","type":"address","indexed":true,"internalType":"address"},{"name":"sender","type":"address","indexed":true,"internalType":"address"}],"anonymous":false},{"type":"event","name":"RoleRevoked","inputs":[{"name":"role","type":"bytes32","indexed":true,"internalType":"bytes32"},{"name":"account","type":"address","indexed":true,"internalType":"address"},{"name":"sender","type":"address","indexed":true,"internalType":"address"}],"anonymous":false},{"type":"event","name":"SaleStatusChanged","inputs":[{"name":"active","type":"bool","indexed":false,"internalType":"bool"}],"anonymous":false},{"type":"event","name":"Swept","inputs":[{"name":"to","type":"address","indexed":true,"internalType":"address"},{"name":"amount","type":"uint256","indexed":false,"internalType":"uint256"}],"anonymous":false},{"type":"event","name":"TokenSet","inputs":[{"name":"token","type":"address","indexed":false,"internalType":"address"}],"anonymous":false},{"type":"event","name":"TreasuryChanged","inputs":[{"name":"treasury","type":"address","indexed":true,"internalType":"address"}],"anonymous":false},{"type":"event","name":"Unpaused","inputs":[{"name":"account","type":"address","indexed":false,"internalType":"address"}],"anonymous":false},{"type":"event","name":"Upgraded","inputs":[{"name":"implementation","type":"address","indexed":true,"internalType":"address"}],"anonymous":false},{"type":"event","name":"WhitelistBatchUpdated","inputs":[{"name":"users","type":"address[]","indexed":false,"internalType":"address[]"},{"name":"whitelisted","type":"bool","indexed":false,"internalType":"bool"}],"anonymous":false},{"type":"event","name":"WhitelistUpdated","inputs":[{"name":"user","type":"address","indexed":true,"internalType":"address"},{"name":"whitelisted","type":"bool","indexed":false,"internalType":"bool"}],"anonymous":false},{"type":"error","name":"AccessControlBadConfirmation","inputs":[]},{"type":"error","name":"AccessControlUnauthorizedAccount","inputs":[{"name":"account","type":"address","internalType":"address"},{"name":"neededRole","type":"bytes32","internalType":"bytes32"}]},{"type":"error","name":"AddressEmptyCode","inputs":[{"name":"target","type":"address","internalType":"address"}]},{"type":"error","name":"ERC1967InvalidImplementation","inputs":[{"name":"implementation","type":"address","internalType":"address"}]},{"type":"error","name":"ERC1967NonPayable","inputs":[]},{"type":"error","name":"EnforcedPause","inputs":[]},{"type":"error","name":"ExpectedPause","inputs":[]},{"type":"error","name":"FailedCall","inputs":[]},{"type":"error","name":"InvalidInitialization","inputs":[]},{"type":"error","name":"NotInitializing","inputs":[]},{"type":"error","name":"NotWhitelisted","inputs":[{"name":"user","type":"address","internalType":"address"}]},{"type":"error","name":"ReentrancyGuardReentrantCall","inputs":[]},{"type":"error","name":"SaleClosed","inputs":[]},{"type":"error","name":"TransferFailed","inputs":[]},{"type":"error","name":"UUPSUnauthorizedCallContext","inputs":[]},{"type":"error","name":"UUPSUnsupportedProxiableUUID","inputs":[{"name":"slot","type":"bytes32","internalType":"bytes32"}]},{"type":"error","name":"WrongETH","inputs":[{"name":"expected","type":"uint256","internalType":"uint256"},{"name":"actual","type":"uint256","internalType":"uint256"}]},{"type":"error","name":"WrongTokenId","inputs":[{"name":"id","type":"uint256","internalType":"uint256"}]},{"type":"error","name":"ZeroAddress","inputs":[]}],"bytecode":{"object":"0x60a06040523461003e5761001161004d565b610019610043565b6132dd6100ee82396080518181816129f601528181612a5b0152612c0a01526132dd90f35b610049565b60405190565b5f80fd5b610055610057565b565b61005f610061565b565b61006961006b565b565b610073610075565b565b61007d61007f565b565b610087610089565b565b610091610093565b565b61009b6100df565b565b60018060a01b031690565b90565b6100bf6100ba6100c49261009d565b6100a8565b61009d565b90565b6100d0906100ab565b90565b6100dc906100c7565b90565b6100e8306100d3565b60805256fe6080604052600436101561001d575b366110f35761001b612711565b005b6100275f35610216565b806301681a621461021157806301ffc9a71461020c5780630d10907014610207578063248a9ca3146102025780632f2ff15d146101fd57806336568abe146101f85780633af32abf146101f35780633f4ba83a146101ee5780634f1ef286146101e957806352d1902d146101e457806353d6fd59146101df57806354202c4e146101da57806359a87bc1146101d55780635c975abb146101d057806361d027b3146101cb57806368428a1b146101c6578063841718a6146101c15780638456cb59146101bc57806391d14854146101b75780639b19251a146101b2578063a217fddf146101ad578063a58da0be146101a8578063a5b45ade146101a3578063ad3cb1cc1461019e578063c0c53b8b14610199578063d547741f14610194578063dd5b5a2e1461018f578063f0f442601461018a578063f72c0d8b14610185578063f7d97577146101805763fc0c546a0361000e576110be565b61101d565b610fbb565b610f59565b610f24565b610ec1565b610e8d565b610e1e565b610ced565b610c05565b610b44565b610ad4565b610a38565b610a05565b6109d2565b61097f565b61090e565b610873565b610849565b6107b4565b610751565b6106cc565b6106a2565b61053f565b61050a565b6104d6565b6104a2565b610440565b6103ca565b610332565b61028b565b60e01c90565b60405190565b5f80fd5b5f80fd5b5f80fd5b60018060a01b031690565b6102429061022e565b90565b61024e81610239565b0361025557565b5f80fd5b9050359061026682610245565b565b906020828203126102815761027e915f01610259565b90565b610226565b5f0190565b346102b9576102a361029e366004610268565b6112c1565b6102ab61021c565b806102b581610286565b0390f35b610222565b63ffffffff60e01b1690565b6102d3816102be565b036102da57565b5f80fd5b905035906102eb826102ca565b565b9060208282031261030657610303915f016102de565b90565b610226565b151590565b6103199061030b565b9052565b9190610330905f60208501940190610310565b565b346103625761035e61034d6103483660046102ed565b6112d0565b61035561021c565b9182918261031d565b0390f35b610222565b5f91031261037157565b610226565b7f4ba1c0b393f1850d2175b0f2d7c2d42c3f898b0037de3434dbcee26a67c6df6690565b6103a2610376565b90565b90565b6103b1906103a5565b9052565b91906103c8905f602085019401906103a8565b565b346103fa576103da366004610367565b6103f66103e561039a565b6103ed61021c565b918291826103b5565b0390f35b610222565b610408816103a5565b0361040f57565b5f80fd5b90503590610420826103ff565b565b9060208282031261043b57610438915f01610413565b90565b610226565b346104705761046c61045b610456366004610422565b61135f565b61046361021c565b918291826103b5565b0390f35b610222565b919060408382031261049d578061049161049a925f8601610413565b93602001610259565b90565b610226565b346104d1576104bb6104b5366004610475565b906113b3565b6104c361021c565b806104cd81610286565b0390f35b610222565b34610505576104ef6104e9366004610475565b906113bf565b6104f761021c565b8061050181610286565b0390f35b610222565b3461053a57610536610525610520366004610268565b611428565b61052d61021c565b9182918261031d565b0390f35b610222565b3461056d5761054f366004610367565b61055761146b565b61055f61021c565b8061056981610286565b0390f35b610222565b5f80fd5b5f80fd5b601f801991011690565b634e487b7160e01b5f52604160045260245ffd5b906105a29061057a565b810190811067ffffffffffffffff8211176105bc57604052565b610584565b906105d46105cd61021c565b9283610598565b565b67ffffffffffffffff81116105f4576105f060209161057a565b0190565b610584565b90825f939282370152565b90929192610619610614826105d6565b6105c1565b9381855260208501908284011161063557610633926105f9565b565b610576565b9080601f830112156106585781602061065593359101610604565b90565b610572565b91909160408184031261069d57610676835f8301610259565b92602082013567ffffffffffffffff811161069857610695920161063a565b90565b61022a565b610226565b6106b66106b036600461065d565b9061149e565b6106be61021c565b806106c881610286565b0390f35b346106fc576106dc366004610367565b6106f86106e7611515565b6106ef61021c565b918291826103b5565b0390f35b610222565b61070a8161030b565b0361071157565b5f80fd5b9050359061072282610701565b565b919060408382031261074c5780610740610749925f8601610259565b93602001610715565b90565b610226565b346107805761076a610764366004610724565b9061161e565b61077261021c565b8061077c81610286565b0390f35b610222565b7f28f5a99355973cc89255b8c4ac88405f27c78ded7608b040ee77a8bdf44d15e290565b6107b1610785565b90565b346107e4576107c4366004610367565b6107e06107cf6107a9565b6107d761021c565b918291826103b5565b0390f35b610222565b90565b6107f5816107e9565b036107fc57565b5f80fd5b9050359061080d826107ec565b565b90916060828403126108445761084161082a845f8501610800565b936108388160208601610800565b93604001610259565b90565b610226565b61085d61085736600461080f565b91611ada565b61086561021c565b8061086f81610286565b0390f35b346108a357610883366004610367565b61089f61088e611ae7565b61089661021c565b9182918261031d565b0390f35b610222565b1c90565b60018060a01b031690565b6108c79060086108cc93026108a8565b6108ac565b90565b906108da91546108b7565b90565b6108e960015f906108cf565b90565b6108f590610239565b9052565b919061090c905f602085019401906108ec565b565b3461093e5761091e366004610367565b61093a6109296108dd565b61093161021c565b918291826108f9565b0390f35b610222565b60ff1690565b61095990600861095e93026108a8565b610943565b90565b9061096c9154610949565b90565b61097c6001601490610961565b90565b346109af5761098f366004610367565b6109ab61099a61096f565b6109a261021c565b9182918261031d565b0390f35b610222565b906020828203126109cd576109ca915f01610715565b90565b610226565b34610a00576109ea6109e53660046109b4565b611ba5565b6109f261021c565b806109fc81610286565b0390f35b610222565b34610a3357610a15366004610367565b610a1d611bd4565b610a2561021c565b80610a2f81610286565b0390f35b610222565b34610a6957610a65610a54610a4e366004610475565b90611bde565b610a5c61021c565b9182918261031d565b0390f35b610222565b90565b610a85610a80610a8a9261022e565b610a6e565b61022e565b90565b610a9690610a71565b90565b610aa290610a8d565b90565b90610aaf90610a99565b5f5260205260405f2090565b610ad190610acc6003915f92610aa5565b610961565b90565b34610b0457610b00610aef610aea366004610268565b610abb565b610af761021c565b9182918261031d565b0390f35b610222565b90565b5f1b90565b610b25610b20610b2a92610b09565b610b0c565b6103a5565b90565b610b365f610b11565b90565b610b41610b2d565b90565b34610b7457610b54366004610367565b610b70610b5f610b39565b610b6761021c565b918291826103b5565b0390f35b610222565b5f80fd5b5f80fd5b909182601f83011215610bbb5781359167ffffffffffffffff8311610bb6576020019260208302840111610bb157565b610b7d565b610b79565b610572565b91604083830312610c00575f83013567ffffffffffffffff8111610bfb57610bed83610bf8928601610b81565b939094602001610715565b90565b61022a565b610226565b34610c3457610c1e610c18366004610bc0565b91611e2c565b610c2661021c565b80610c3081610286565b0390f35b610222565b90602082820312610c5257610c4f915f01610800565b90565b610226565b610c6b610c66610c70926107e9565b610a6e565b6107e9565b90565b90610c7d90610c57565b5f5260205260405f2090565b90565b610c9c906008610ca193026108a8565b610c89565b90565b90610caf9154610c8c565b90565b610cc890610cc36002915f92610c73565b610ca4565b90565b610cd4906107e9565b9052565b9190610ceb905f60208501940190610ccb565b565b34610d1d57610d19610d08610d03366004610c39565b610cb2565b610d1061021c565b91829182610cd8565b0390f35b610222565b67ffffffffffffffff8111610d4057610d3c60209161057a565b0190565b610584565b90610d57610d5283610d22565b6105c1565b918252565b5f7f352e302e30000000000000000000000000000000000000000000000000000000910152565b610d8d6005610d45565b90610d9a60208301610d5c565b565b610da4610d83565b90565b610daf610d9c565b90565b610dba610da7565b90565b5190565b60209181520190565b90825f9392825e0152565b610df4610dfd602093610e0293610deb81610dbd565b93848093610dc1565b95869101610dca565b61057a565b0190565b610e1b9160208201915f818403910152610dd5565b90565b34610e4e57610e2e366004610367565b610e4a610e39610db2565b610e4161021c565b91829182610e06565b0390f35b610222565b9091606082840312610e8857610e85610e6e845f8501610259565b93610e7c8160208601610259565b93604001610259565b90565b610226565b34610ebc57610ea6610ea0366004610e53565b91612571565b610eae61021c565b80610eb881610286565b0390f35b610222565b34610ef057610eda610ed4366004610475565b906125a8565b610ee261021c565b80610eec81610286565b0390f35b610222565b7f27a0624e64a794e52337524177801654db9a21fcd4c18d902036cf6ff01b015990565b610f21610ef5565b90565b34610f5457610f34366004610367565b610f50610f3f610f19565b610f4761021c565b918291826103b5565b0390f35b610222565b34610f8757610f71610f6c366004610268565b612658565b610f7961021c565b80610f8381610286565b0390f35b610222565b7f189ab7a9244df0848122154315af71fe140f3db0fe014031783b0946b8c9d2e390565b610fb8610f8c565b90565b34610feb57610fcb366004610367565b610fe7610fd6610fb0565b610fde61021c565b918291826103b5565b0390f35b610222565b9190604083820312611018578061100c611015925f8601610800565b93602001610800565b90565b610226565b3461104c57611036611030366004610ff0565b906126e1565b61103e61021c565b8061104881610286565b0390f35b610222565b60018060a01b031690565b61106c90600861107193026108a8565b611051565b90565b9061107f915461105c565b90565b61108d5f5f90611074565b90565b61109990610a8d565b90565b6110a590611090565b9052565b91906110bc905f6020850194019061109c565b565b346110ee576110ce366004610367565b6110ea6110d9611082565b6110e161021c565b918291826110a9565b0390f35b610222565b5f80fd5b6111109061110b611106610376565b612793565b6111c7565b565b61112661112161112b92610b09565b610a6e565b61022e565b90565b61113790611112565b90565b61114390610a8d565b90565b61115a61115561115f92610b09565b610a6e565b6107e9565b90565b905090565b6111725f8092611162565b0190565b61117f90611167565b90565b9061119461118f836105d6565b6105c1565b918252565b606090565b3d5f146111b9576111ae3d611182565b903d5f602084013e5b565b6111c1611199565b906111b7565b806111e26111dc6111d75f61112e565b610239565b91610239565b146112a5576111f03061113a565b3190816112056111ff5f611146565b916107e9565b1161120f575b5050565b61123c5f80838561121e61021c565b908161122981611176565b03925af161123561119e565b501561030b565b6112895761127f61126d7fc36b5179cb9c303b200074996eab2b3473eac370fdd7eba3bec636fe3510969692610a99565b9261127661021c565b91829182610cd8565b0390a25f8061120b565b5f6312171d8360e31b8152806112a160048201610286565b0390fd5b5f63d92e233d60e01b8152806112bd60048201610286565b0390fd5b6112ca906110f7565b565b5f90565b6112d86112cc565b50806112f36112ed637965db0b60e01b6102be565b916102be565b14908115611300575b5090565b61130a91506127a7565b5f6112fc565b5f90565b61131d906103a5565b90565b9061132a90611314565b5f5260205260405f2090565b5f1c90565b90565b61134a61134f91611336565b61133b565b90565b61135c905461133e565b90565b600161138061138692611370611310565b505f61137a6127cd565b01611320565b01611352565b90565b906113a49161139f61139a8261135f565b612793565b6113a6565b565b906113b0916127f1565b50565b906113bd91611389565b565b90806113da6113d46113cf6128ac565b610239565b91610239565b036113eb576113e8916128b9565b50565b5f63334bd91960e11b81528061140360048201610286565b0390fd5b61141361141891611336565b610943565b90565b6114259054611407565b90565b61143f611444916114376112cc565b506003610aa5565b61141b565b90565b611457611452610ef5565b612793565b61145f611461565b565b6114696129cf565b565b611473611447565b565b90611487916114826129e5565b611489565b565b9061149c9161149781612a9f565b612afb565b565b906114a891611475565b565b6114bb906114b6612bf9565b611509565b90565b90565b6114d56114d06114da926114be565b610b0c565b6103a5565b90565b6115067f360894a13ba1a3210667c828492db98dca3e2076cc3735a920a3ca505d382bbc6114c1565b90565b506115126114dd565b90565b611525611520611310565b6114aa565b90565b906115429161153d611538610785565b612793565b611589565b565b9061155060ff91610b0c565b9181191691161790565b6115639061030b565b90565b90565b9061157e6115796115859261155a565b611566565b8254611544565b9055565b806115a461159e6115995f61112e565b610239565b91610239565b14611602576115be826115b960038490610aa5565b611569565b6115fd6115eb7ff93f9a76c1bf3444d22400a00cb9fe990e6abe9dbb333fda48859cfee864543d92610a99565b926115f461021c565b9182918261031d565b0390a2565b5f63d92e233d60e01b81528061161a60048201610286565b0390fd5b9061162891611528565b565b9061163d9291611638612c57565b611647565b611645612c7c565b565b9061165a9291611655612c98565b6117f9565b565b60a01c90565b61166e6116739161165c565b610943565b90565b6116809054611662565b90565b61168f61169491611336565b610c89565b90565b6116a19054611683565b90565b634e487b7160e01b5f52601160045260245ffd5b6116c76116cd919392936107e9565b926107e9565b916116d98382026107e9565b9281840414901517156116e857565b6116a4565b91602061170e92949361170760408201965f830190610ccb565b0190610ccb565b565b61171c61172191611336565b611051565b90565b61172e9054611710565b90565b5f80fd5b60e01b90565b5f91031261174557565b610226565b60209181520190565b61175e5f809261174a565b0190565b90916117a19361178a6117949261178060808601965f8701906108ec565b6020850190610ccb565b6040830190610ccb565b6060818303910152611753565b90565b6117ac61021c565b3d5f823e3d90fd5b6117c06117c591611336565b6108ac565b90565b6117d290546117b4565b90565b6117de90610a71565b90565b6117ea906117d5565b90565b6117f690610a8d565b90565b61180c6118066001611676565b1561030b565b611abe5761181981612cc2565b8261183461182e6118295f61112e565b610239565b91610239565b14611aa2578061185561184f61184a6006611697565b6107e9565b916107e9565b1480611a7f575b611a605761187e61187761187260028490610c73565b611697565b83906116b8565b3461189161188b836107e9565b916107e9565b03611a4057506118a86118a35f611724565b611090565b63731133e98483928592813b15611a3b575f6118d7916118e282966118cb61021c565b98899788968795611735565b855260048501611762565b03925af18015611a3657611a0a575b5061190c61190761190260016117c8565b6117e1565b6117ed565b63d0e30db0349190813b15611a05575f916119339161192961021c565b9485938492611735565b82528161194260048201610286565b03925af190816119d9575b50155f146119d45760016119b8575b33929091923461199e6119986119927fb362243af1e2070d7d5bf8d713f2e0fab64203f1b71462afbe20572909788c5e94610a99565b94610a99565b94610c57565b946119b36119aa61021c565b928392836116ed565b0390a4565b5f6312171d8360e31b8152806119d060048201610286565b0390fd5b61195c565b6119f8905f3d81116119fe575b6119f08183610598565b81019061173b565b5f61194d565b503d6119e6565b611731565b611a29905f3d8111611a2f575b611a218183610598565b81019061173b565b5f6118f1565b503d611a17565b6117a4565b611731565b3490611a5c5f928392630cd0cbf760e01b8452600484016116ed565b0390fd5b611a7b335f918291636f8bf18b60e11b8352600483016108f9565b0390fd5b50611a9d611a97611a9260033390610aa5565b61141b565b1561030b565b61185c565b5f63d92e233d60e01b815280611aba60048201610286565b0390fd5b5f634c013bd760e01b815280611ad660048201610286565b0390fd5b90611ae5929161162a565b565b611aef6112cc565b50611b025f611afc612d5a565b0161141b565b90565b611b1e90611b19611b14610ef5565b612793565b611b5f565b565b60a01b90565b90611b3560ff60a01b91611b20565b9181191691161790565b90611b54611b4f611b5b9261155a565b611566565b8254611b26565b9055565b611b6a816001611b3f565b611ba07ff3637cdf61687bb87179d2da614bc1f4aa93c3cbf40282ccd0a15ecad9184cc191611b9761021c565b9182918261031d565b0390a1565b611bae90611b05565b565b611bc0611bbb610ef5565b612793565b611bc8611bca565b565b611bd2612de8565b565b611bdc611bb0565b565b611c0d915f611c02611c0893611bf26112cc565b5082611bfc6127cd565b01611320565b01610aa5565b61141b565b90565b90611c2b9291611c26611c21610785565b612793565b611d34565b565b6001611c3991016107e9565b90565b5090565b634e487b7160e01b5f52603260045260245ffd5b9190811015611c64576020020190565b611c40565b35611c7381610245565b90565b60209181520190565b90565b611c8b90610239565b9052565b90611c9c81602093611c82565b0190565b50611caf906020810190610259565b90565b60200190565b91611cc682611ccc92611c76565b92611c7f565b90815f905b828210611cdf575050505090565b90919293611d01611cfb600192611cf68886611ca0565b611c8f565b95611cb2565b920190929192611cd1565b939290611d2a602091611d329460408801918883035f8a0152611cb8565b940190610310565b565b90929192611d415f611146565b5b80611d5f611d59611d54868690611c3c565b6107e9565b916107e9565b1015611dea57611d79611d7484848491611c54565b611c69565b611d93611d8d611d885f61112e565b610239565b91610239565b14611dce57611dc990611dc486611dbf6003611db9611db489898891611c54565b611c69565b90610aa5565b611569565b611c2d565b611d42565b5f63d92e233d60e01b815280611de660048201610286565b0390fd5b50919290919091611e277feddab33b6c55cf41f37d35e6db83d4b287f83afc2b9abff63726ea5f2186c20093611e1e61021c565b93849384611d0c565b0390a1565b90611e379291611c10565b565b60401c90565b611e4b611e5091611e39565b610943565b90565b611e5d9054611e3f565b90565b67ffffffffffffffff1690565b611e79611e7e91611336565b611e60565b90565b611e8b9054611e6d565b90565b67ffffffffffffffff1690565b611eaf611eaa611eb492610b09565b610a6e565b611e8e565b90565b90565b611ece611ec9611ed392611eb7565b610a6e565b611e8e565b90565b611edf90610a8d565b90565b90611ef567ffffffffffffffff91610b0c565b9181191691161790565b611f13611f0e611f1892611e8e565b610a6e565b611e8e565b90565b90565b90611f33611f2e611f3a92611eff565b611f1b565b8254611ee2565b9055565b60401b90565b90611f5868ff000000000000000091611f3e565b9181191691161790565b90611f77611f72611f7e9261155a565b611566565b8254611f44565b9055565b611f8b90611eba565b9052565b9190611fa2905f60208501940190611f82565b565b611fac612df2565b92611fc1611fbb5f8601611e53565b1561030b565b92611fcd5f8601611e81565b80611fe0611fda5f611e9b565b91611e8e565b14806120fa575b90611ffb611ff56001611eba565b91611e8e565b14806120d2575b61200d90911561030b565b90816120c1575b506120a55761203d9261203261202a6001611eba565b5f8801611f1e565b84612093575b6121ec565b612045575b50565b612052905f809101611f62565b600161208a7fc7f505b2f371ae2175ee4913f4499e1f2633a7b5936321eed1cdaeb6115181d29161208161021c565b91829182611f8f565b0390a15f612042565b6120a060015f8801611f62565b612038565b5f63f92ee8a960e01b8152806120bd60048201610286565b0390fd5b6120cc91501561030b565b5f612014565b5061200d6120df30611ed6565b3b6120f26120ec5f611146565b916107e9565b149050612002565b5084611fe7565b61210a90610a71565b90565b61211690612101565b90565b9061212a60018060a01b0391610b0c565b9181191691161790565b61213d90612101565b90565b90565b9061215861215361215f92612134565b612140565b8254612119565b9055565b90565b9061217b61217661218292610a99565b612163565b8254612119565b9055565b90505190612193826107ec565b565b906020828203126121ae576121ab915f01612186565b90565b610226565b906121bf5f1991610b0c565b9181191691161790565b90565b906121e16121dc6121e892610c57565b6121c9565b82546121b3565b9055565b9091816122096122036121fe5f61112e565b610239565b91610239565b14801561254f575b801561252d575b6125115761228190612228612e07565b612230612e1b565b61224261223c8461210d565b5f612143565b61224d846001612166565b612258600180611b3f565b602061226b6122668561210d565b611090565b63ad7975de9061227961021c565b948592611735565b8252818061229160048201610286565b03915afa91821561250c576122dc926122b3915f916124de575b5060046121cc565b60206122c66122c18561210d565b611090565b6306be414f906122d461021c565b948592611735565b825281806122ec60048201610286565b03915afa9182156124d9576123369261230e915f916124ab575b5060056121cc565b602061232161231c8561210d565b611090565b62a0a52a9061232e61021c565b948592611735565b8252818061234660048201610286565b03915afa9182156124a6576123c192612368915f91612478575b5060066121cc565b61237a612373610b2d565b82906127f1565b5061238d612386610ef5565b82906127f1565b506123a0612399610376565b82906127f1565b506123b36123ac610785565b82906127f1565b506123bc610f8c565b6127f1565b506123f87fa07c91c183e42229e705a9795a1c06d76528b673788b849597364528c96eefb7916123ef61021c565b918291826108f9565b0390a16124257fc714d22a2f08b695f81e7c707058db484aa5b4d6b4c9fd64beb10fe85832f60891610a99565b9061242e61021c565b8061243881610286565b0390a260016124737ff3637cdf61687bb87179d2da614bc1f4aa93c3cbf40282ccd0a15ecad9184cc19161246a61021c565b9182918261031d565b0390a1565b612499915060203d811161249f575b6124918183610598565b810190612195565b5f612360565b503d612487565b6117a4565b6124cc915060203d81116124d2575b6124c48183610598565b810190612195565b5f612306565b503d6124ba565b6117a4565b6124ff915060203d8111612505575b6124f78183610598565b810190612195565b5f6122ab565b503d6124ed565b6117a4565b5f63d92e233d60e01b81528061252960048201610286565b0390fd5b508061254961254361253e5f61112e565b610239565b91610239565b14612218565b508261256b6125656125605f61112e565b610239565b91610239565b14612211565b9061257c9291611fa4565b565b906125999161259461258f8261135f565b612793565b61259b565b565b906125a5916128b9565b50565b906125b29161257e565b565b6125cd906125c86125c3610376565b612793565b6125cf565b565b806125ea6125e46125df5f61112e565b610239565b91610239565b1461263c576125fa816001612166565b6126247fc714d22a2f08b695f81e7c707058db484aa5b4d6b4c9fd64beb10fe85832f60891610a99565b9061262d61021c565b8061263781610286565b0390a2565b5f63d92e233d60e01b81528061265460048201610286565b0390fd5b612661906125b4565b565b9061267d91612678612673610ef5565b612793565b61267f565b565b61268881612cc2565b61269d8261269860028490610c73565b6121cc565b6126dc6126ca7f945c1c4e99aa89f648fbfe3df471b916f719e16d960fcec0737d4d56bd69683892610c57565b926126d361021c565b91829182610cd8565b0390a2565b906126eb91612663565b565b6126f690610a71565b90565b612702906126ed565b90565b61270e90610a8d565b90565b3461272461271e5f611146565b916107e9565b146127915761276f5f8061274861274361273e60016117c8565b6126f9565b612705565b3461275161021c565b908161275c81611176565b03925af161276861119e565b501561030b565b61277557565b5f6312171d8360e31b81528061278d60048201610286565b0390fd5b565b6127a59061279f6128ac565b90612e48565b565b6127af6112cc565b506127c96127c36301ffc9a760e01b6102be565b916102be565b1490565b7f02dd7bc7dec4dceedda775e58dd541e08a116c6c53815c0bd028192f7b62680090565b6127f96112cc565b506128026127cd565b612816612810838590611bde565b1561030b565b5f146128a1576128409061283b5f61283381600194018690611320565b018590610aa5565b611569565b906128496128ac565b9061288661288061287a7f2f8788117e7eff1d82e926ec794901d17c78024a50270940304540a733656f0d95611314565b92610a99565b92610a99565b9261288f61021c565b8061289981610286565b0390a4600190565b5050505f90565b5f90565b6128b46128a8565b503390565b6128c16112cc565b506128ca6127cd565b6128d5828490611bde565b5f1461295f576128fe906128f95f6128f1818094018690611320565b018590610aa5565b611569565b906129076128ac565b9061294461293e6129387ff6391f5c32d9c69d2a47ea670b442974b53935d1edc7fd64eb21e047a839171b95611314565b92610a99565b92610a99565b9261294d61021c565b8061295781610286565b0390a4600190565b5050505f90565b61296e612e83565b612976612978565b565b61298c612983612d5a565b5f809101611569565b6129946128ac565b6129ca7f5db9ee0a495bf2e6ff9c91a7834c1ba4fdd244a5e8aa4e537bd38aeae4b073aa916129c161021c565b918291826108f9565b0390a1565b6129d7612966565b565b6129e290610a8d565b90565b6129ee306129d9565b612a20612a1a7f0000000000000000000000000000000000000000000000000000000000000000610239565b91610239565b148015612a4a575b612a2e57565b5f63703e46dd60e11b815280612a4660048201610286565b0390fd5b50612a53612eb6565b612a85612a7f7f0000000000000000000000000000000000000000000000000000000000000000610239565b91610239565b1415612a28565b50612a9d612a98610f8c565b612793565b565b612aa890612a8c565b565b612ab390610a71565b90565b612abf90612aaa565b90565b612acb90610a8d565b90565b90505190612adb826103ff565b565b90602082820312612af657612af3915f01612ace565b90565b610226565b9190612b296020612b13612b0e86612ab6565b612ac2565b6352d1902d90612b2161021c565b938492611735565b82528180612b3960048201610286565b03915afa80915f92612bc9575b50155f14612b7a575050906001612b5b57505b565b612b76905f918291634c9c8ce360e01b8352600483016108f9565b0390fd5b9283612b95612b8f612b8a6114dd565b6103a5565b916103a5565b03612baa57612ba5929350612ee0565b612b59565b612bc5845f918291632a87526960e21b8352600483016103b5565b0390fd5b612beb91925060203d8111612bf2575b612be38183610598565b810190612add565b905f612b46565b503d612bd9565b612c02306129d9565b612c34612c2e7f0000000000000000000000000000000000000000000000000000000000000000610239565b91610239565b03612c3b57565b5f63703e46dd60e11b815280612c5360048201610286565b0390fd5b612c5f612f69565b612c7a612c72612c6d612fde565b612ff6565b60019061300b565b565b612c96612c8f612c8a612fde565b612ff6565b5f9061300b565b565b612ca0611ae7565b612ca657565b5f63d93c066560e01b815280612cbe60048201610286565b0390fd5b80612cde612cd8612cd36004611697565b6107e9565b916107e9565b141580612d36575b80612d12575b612cf35750565b612d0e905f9182916311fbc14560e11b835260048301610cd8565b0390fd5b5080612d2f612d29612d246006611697565b6107e9565b916107e9565b1415612cec565b5080612d53612d4d612d486005611697565b6107e9565b916107e9565b1415612ce6565b7fcd5ed15c6e187e77e9aee88184c21f4f2182ab5827cb3b7e07fbedcd63f0330090565b612d86612c98565b612d8e612d90565b565b612da5612d9b612d5a565b5f60019101611569565b612dad6128ac565b612de37f62e78cea01bee320cd4e420270b5ea74000d11b0c9f74754ebdbfc544b05a25891612dda61021c565b918291826108f9565b0390a1565b612df0612d7e565b565b612dfa613059565b90565b612e0561306d565b565b612e0f612dfd565b565b612e1961306d565b565b612e23612e11565b565b916020612e46929493612e3f60408201965f8301906108ec565b01906103a8565b565b90612e5d612e57838390611bde565b1561030b565b612e65575050565b612e7f5f92839263e2517d3f60e01b845260048401612e25565b0390fd5b612e94612e8e611ae7565b1561030b565b612e9a57565b5f638dfc202b60e01b815280612eb260048201610286565b0390fd5b612ebe6128a8565b50612ed95f612ed3612ece6114dd565b6130a0565b016117c8565b90565b5190565b90612eea826130a3565b81612f157fbc7cd75a20ee27fd9adebab32041f755214dbc6bffa90cc0225b39da2e5c2d3b91610a99565b90612f1e61021c565b80612f2881610286565b0390a2612f3481612edc565b612f46612f405f611146565b916107e9565b115f14612f5a57612f569161312e565b505b565b5050612f646130f8565b612f58565b612f71613201565b612f7757565b5f633ee5aeb560e01b815280612f8f60048201610286565b0390fd5b90565b612faa612fa5612faf92612f93565b610b0c565b6103a5565b90565b612fdb7f9b779b17422d0df92223018b32b4d1fa46e071723d6817e2486d003becc55f00612f96565b90565b612fe6611310565b50612fef612fb2565b90565b5f90565b61300890613002612ff2565b50611314565b90565b5d565b90565b61302561302061302a9261300e565b610b0c565b6103a5565b90565b6130567ff0c57e16840df040f15088dc2f81fe391c3923bec73e23a9662efc9c229c6a00613011565b90565b613061611310565b5061306a61302d565b90565b61307e613078613225565b1561030b565b61308457565b5f631afcd79f60e31b81528061309c60048201610286565b0390fd5b90565b803b6130b76130b15f611146565b916107e9565b146130d9576130d7905f6130d16130cc6114dd565b6130a0565b01612166565b565b6130f4905f918291634c9c8ce360e01b8352600483016108f9565b0390fd5b3461310b6131055f611146565b916107e9565b1161311257565b5f63b398979f60e01b81528061312a60048201610286565b0390fd5b906131429061313b611199565b5082613243565b80806131be575b5f1461315c575050613159613278565b90565b5f146131815761317d905f918291639996b31560e01b8352600483016108f9565b0390fd5b613189613260565b61319b6131955f611146565b916107e9565b115f0361326d575f63d6bda27560e01b8152806131ba60048201610286565b0390fd5b506131c7613260565b6131d96131d35f611146565b916107e9565b1180156131e6575b613149565b50813b6131fb6131f55f611146565b916107e9565b116131e1565b6132096112cc565b5061322261321d613218612fde565b612ff6565b61329a565b90565b61322d6112cc565b506132405f61323a612df2565b01611e53565b90565b5f91829161324f6112cc565b50602082519201905af490565b5f90565b61326861325c565b503d90565b6040513d5f823e3d90fd5b613280611199565b50604051903d82523d5f602084013e3d6020018201604052565b6132a26112cc565b505c9056fea264697066735822122031058de5c2435eb90745883a2f38a7a149f4e916e6642347f44b61913e7ef6a764736f6c634300081e0033","linkReferences":{}},"methodIdentifiers":{"DEFAULT_ADMIN_ROLE()":"a217fddf","SALE_ADMIN_ROLE()":"dd5b5a2e","TREASURY_ADMIN_ROLE()":"0d109070","UPGRADER_ROLE()":"f72c0d8b","UPGRADE_INTERFACE_VERSION()":"ad3cb1cc","WHITELIST_ADMIN_ROLE()":"54202c4e","buy(uint256,uint256,address)":"59a87bc1","getRoleAdmin(bytes32)":"248a9ca3","grantRole(bytes32,address)":"2f2ff15d","hasRole(bytes32,address)":"91d14854","initialize(address,address,address)":"c0c53b8b","isWhitelisted(address)":"3af32abf","pause()":"8456cb59","paused()":"5c975abb","priceWei(uint256)":"a5b45ade","proxiableUUID()":"52d1902d","renounceRole(bytes32,address)":"36568abe","revokeRole(bytes32,address)":"d547741f","saleActive()":"68428a1b","setPrice(uint256,uint256)":"f7d97577","setSaleActive(bool)":"841718a6","setTreasury(address)":"f0f44260","setWhitelist(address,bool)":"53d6fd59","setWhitelistBatch(address[],bool)":"a58da0be","supportsInterface(bytes4)":"01ffc9a7","sweep(address)":"01681a62","token()":"fc0c546a","treasury()":"61d027b3","unpause()":"3f4ba83a","upgradeToAndCall(address,bytes)":"4f1ef286","whitelist(address)":"9b19251a"},"id":63}