{"abi":[{"type":"receive","stateMutability":"payable"},{"type":"function","name":"DEFAULT_ADMIN_ROLE","inputs":[],"outputs":[{"name":"","type":"bytes32","internalType":"bytes32"}],"stateMutability":"view"},{"type":"function","name":"PAUSER_ROLE","inputs":[],"outputs":[{"name":"","type":"bytes32","internalType":"bytes32"}],"stateMutability":"view"},{"type":"function","name":"TREASURY_ADMIN_ROLE","inputs":[],"outputs":[{"name":"","type":"bytes32","internalType":"bytes32"}],"stateMutability":"view"},{"type":"function","name":"UPGRADER_ROLE","inputs":[],"outputs":[{"name":"","type":"bytes32","internalType":"bytes32"}],"stateMutability":"view"},{"type":"function","name":"UPGRADE_INTERFACE_VERSION","inputs":[],"outputs":[{"name":"","type":"string","internalType":"string"}],"stateMutability":"view"},{"type":"function","name":"deposit","inputs":[],"outputs":[],"stateMutability":"payable"},{"type":"function","name":"getRoleAdmin","inputs":[{"name":"role","type":"bytes32","internalType":"bytes32"}],"outputs":[{"name":"","type":"bytes32","internalType":"bytes32"}],"stateMutability":"view"},{"type":"function","name":"grantRole","inputs":[{"name":"role","type":"bytes32","internalType":"bytes32"},{"name":"account","type":"address","internalType":"address"}],"outputs":[],"stateMutability":"nonpayable"},{"type":"function","name":"hasRole","inputs":[{"name":"role","type":"bytes32","internalType":"bytes32"},{"name":"account","type":"address","internalType":"address"}],"outputs":[{"name":"","type":"bool","internalType":"bool"}],"stateMutability":"view"},{"type":"function","name":"initialize","inputs":[{"name":"admin","type":"address","internalType":"address"}],"outputs":[],"stateMutability":"nonpayable"},{"type":"function","name":"pause","inputs":[],"outputs":[],"stateMutability":"nonpayable"},{"type":"function","name":"paused","inputs":[],"outputs":[{"name":"","type":"bool","internalType":"bool"}],"stateMutability":"view"},{"type":"function","name":"proxiableUUID","inputs":[],"outputs":[{"name":"","type":"bytes32","internalType":"bytes32"}],"stateMutability":"view"},{"type":"function","name":"renounceRole","inputs":[{"name":"role","type":"bytes32","internalType":"bytes32"},{"name":"callerConfirmation","type":"address","internalType":"address"}],"outputs":[],"stateMutability":"nonpayable"},{"type":"function","name":"revokeRole","inputs":[{"name":"role","type":"bytes32","internalType":"bytes32"},{"name":"account","type":"address","internalType":"address"}],"outputs":[],"stateMutability":"nonpayable"},{"type":"function","name":"supportsInterface","inputs":[{"name":"interfaceId","type":"bytes4","internalType":"bytes4"}],"outputs":[{"name":"","type":"bool","internalType":"bool"}],"stateMutability":"view"},{"type":"function","name":"sweep","inputs":[{"name":"amount","type":"uint256","internalType":"uint256"}],"outputs":[],"stateMutability":"nonpayable"},{"type":"function","name":"unpause","inputs":[],"outputs":[],"stateMutability":"nonpayable"},{"type":"function","name":"upgradeToAndCall","inputs":[{"name":"newImplementation","type":"address","internalType":"address"},{"name":"data","type":"bytes","internalType":"bytes"}],"outputs":[],"stateMutability":"payable"},{"type":"event","name":"Deposited","inputs":[{"name":"from","type":"address","indexed":true,"internalType":"address"},{"name":"amount","type":"uint256","indexed":false,"internalType":"uint256"}],"anonymous":false},{"type":"event","name":"Initialized","inputs":[{"name":"version","type":"uint64","indexed":false,"internalType":"uint64"}],"anonymous":false},{"type":"event","name":"Paused","inputs":[{"name":"account","type":"address","indexed":false,"internalType":"address"}],"anonymous":false},{"type":"event","name":"RoleAdminChanged","inputs":[{"name":"role","type":"bytes32","indexed":true,"internalType":"bytes32"},{"name":"previousAdminRole","type":"bytes32","indexed":true,"internalType":"bytes32"},{"name":"newAdminRole","type":"bytes32","indexed":true,"internalType":"bytes32"}],"anonymous":false},{"type":"event","name":"RoleGranted","inputs":[{"name":"role","type":"bytes32","indexed":true,"internalType":"bytes32"},{"name":"account","type":"address","indexed":true,"internalType":"address"},{"name":"sender","type":"address","indexed":true,"internalType":"address"}],"anonymous":false},{"type":"event","name":"RoleRevoked","inputs":[{"name":"role","type":"bytes32","indexed":true,"internalType":"bytes32"},{"name":"account","type":"address","indexed":true,"internalType":"address"},{"name":"sender","type":"address","indexed":true,"internalType":"address"}],"anonymous":false},{"type":"event","name":"Swept","inputs":[{"name":"to","type":"address","indexed":true,"internalType":"address"},{"name":"amount","type":"uint256","indexed":false,"internalType":"uint256"}],"anonymous":false},{"type":"event","name":"Unpaused","inputs":[{"name":"account","type":"address","indexed":false,"internalType":"address"}],"anonymous":false},{"type":"event","name":"Upgraded","inputs":[{"name":"implementation","type":"address","indexed":true,"internalType":"address"}],"anonymous":false},{"type":"error","name":"AccessControlBadConfirmation","inputs":[]},{"type":"error","name":"AccessControlUnauthorizedAccount","inputs":[{"name":"account","type":"address","internalType":"address"},{"name":"neededRole","type":"bytes32","internalType":"bytes32"}]},{"type":"error","name":"AddressEmptyCode","inputs":[{"name":"target","type":"address","internalType":"address"}]},{"type":"error","name":"ERC1967InvalidImplementation","inputs":[{"name":"implementation","type":"address","internalType":"address"}]},{"type":"error","name":"ERC1967NonPayable","inputs":[]},{"type":"error","name":"EnforcedPause","inputs":[]},{"type":"error","name":"ExpectedPause","inputs":[]},{"type":"error","name":"FailedCall","inputs":[]},{"type":"error","name":"InsufficientCapacity","inputs":[{"name":"need","type":"uint256","internalType":"uint256"},{"name":"available","type":"uint256","internalType":"uint256"}]},{"type":"error","name":"InvalidInitialization","inputs":[]},{"type":"error","name":"NotInitializing","inputs":[]},{"type":"error","name":"ReentrancyGuardReentrantCall","inputs":[]},{"type":"error","name":"TransferFailed","inputs":[]},{"type":"error","name":"UUPSUnauthorizedCallContext","inputs":[]},{"type":"error","name":"UUPSUnsupportedProxiableUUID","inputs":[{"name":"slot","type":"bytes32","internalType":"bytes32"}]},{"type":"error","name":"ZeroAddress","inputs":[]}],"bytecode":{"object":"0x60a06040523461003e5761001161004d565b610019610043565b611f296100f8823960805181818161166a015281816116cf01526118840152611f2990f35b610049565b60405190565b5f80fd5b610055610057565b565b61005f610061565b565b61006961006b565b565b610073610075565b565b61007d61007f565b565b610087610089565b565b610091610093565b565b61009b61009d565b565b6100a56100e9565b565b60018060a01b031690565b90565b6100c96100c46100ce926100a7565b6100b2565b6100a7565b90565b6100da906100b5565b90565b6100e6906100d1565b90565b6100f2306100dd565b60805256fe6080604052600436101561001d575b366109e75761001b61134e565b005b6100275f35610156565b806301ffc9a7146101515780630d1090701461014c578063248a9ca3146101475780632f2ff15d1461014257806336568abe1461013d5780633f4ba83a146101385780634f1ef2861461013357806352d1902d1461012e5780635c975abb146101295780638456cb591461012457806391d148541461011f578063a217fddf1461011a578063aa60e73314610115578063ad3cb1cc14610110578063c4d66de81461010b578063d0e30db014610106578063d547741f14610101578063e63ab1e9146100fc5763f72c0d8b0361000e576109b2565b61094e565b6108eb565b6108c2565b61088f565b61083c565b61070d565b610694565b610623565b6105f0565b6105bb565b610586565b61055c565b6103f9565b6103c5565b610391565b6102f0565b61027a565b6101e2565b60e01c90565b60405190565b5f80fd5b5f80fd5b5f80fd5b63ffffffff60e01b1690565b6101838161016e565b0361018a57565b5f80fd5b9050359061019b8261017a565b565b906020828203126101b6576101b3915f0161018e565b90565b610166565b151590565b6101c9906101bb565b9052565b91906101e0905f602085019401906101c0565b565b346102125761020e6101fd6101f836600461019d565b6109ef565b61020561015c565b918291826101cd565b0390f35b610162565b5f91031261022157565b610166565b7f4ba1c0b393f1850d2175b0f2d7c2d42c3f898b0037de3434dbcee26a67c6df6690565b610252610226565b90565b90565b61026190610255565b9052565b9190610278905f60208501940190610258565b565b346102aa5761028a366004610217565b6102a661029561024a565b61029d61015c565b91829182610265565b0390f35b610162565b6102b881610255565b036102bf57565b5f80fd5b905035906102d0826102af565b565b906020828203126102eb576102e8915f016102c3565b90565b610166565b346103205761031c61030b6103063660046102d2565b610a7e565b61031361015c565b91829182610265565b0390f35b610162565b60018060a01b031690565b61033990610325565b90565b61034581610330565b0361034c57565b5f80fd5b9050359061035d8261033c565b565b9190604083820312610387578061037b610384925f86016102c3565b93602001610350565b90565b610166565b5f0190565b346103c0576103aa6103a436600461035f565b90610ad2565b6103b261015c565b806103bc8161038c565b0390f35b610162565b346103f4576103de6103d836600461035f565b90610ade565b6103e661015c565b806103f08161038c565b0390f35b610162565b3461042757610409366004610217565b610411610b4a565b61041961015c565b806104238161038c565b0390f35b610162565b5f80fd5b5f80fd5b601f801991011690565b634e487b7160e01b5f52604160045260245ffd5b9061045c90610434565b810190811067ffffffffffffffff82111761047657604052565b61043e565b9061048e61048761015c565b9283610452565b565b67ffffffffffffffff81116104ae576104aa602091610434565b0190565b61043e565b90825f939282370152565b909291926104d36104ce82610490565b61047b565b938185526020850190828401116104ef576104ed926104b3565b565b610430565b9080601f830112156105125781602061050f933591016104be565b90565b61042c565b91909160408184031261055757610530835f8301610350565b92602082013567ffffffffffffffff81116105525761054f92016104f4565b90565b61016a565b610166565b61057061056a366004610517565b90610b7d565b61057861015c565b806105828161038c565b0390f35b346105b657610596366004610217565b6105b26105a1610bf4565b6105a961015c565b91829182610265565b0390f35b610162565b346105eb576105cb366004610217565b6105e76105d6610c2e565b6105de61015c565b918291826101cd565b0390f35b610162565b3461061e57610600366004610217565b610608610c70565b61061061015c565b8061061a8161038c565b0390f35b610162565b346106545761065061063f61063936600461035f565b90610cc7565b61064761015c565b918291826101cd565b0390f35b610162565b90565b5f1b90565b61067561067061067a92610659565b61065c565b610255565b90565b6106865f610661565b90565b61069161067d565b90565b346106c4576106a4366004610217565b6106c06106af610689565b6106b761015c565b91829182610265565b0390f35b610162565b90565b6106d5816106c9565b036106dc57565b5f80fd5b905035906106ed826106cc565b565b9060208282031261070857610705915f016106e0565b90565b610166565b3461073b576107256107203660046106ef565b610eed565b61072d61015c565b806107378161038c565b0390f35b610162565b67ffffffffffffffff811161075e5761075a602091610434565b0190565b61043e565b9061077561077083610740565b61047b565b918252565b5f7f352e302e30000000000000000000000000000000000000000000000000000000910152565b6107ab6005610763565b906107b86020830161077a565b565b6107c26107a1565b90565b6107cd6107ba565b90565b6107d86107c5565b90565b5190565b60209181520190565b90825f9392825e0152565b61081261081b60209361082093610809816107db565b938480936107df565b958691016107e8565b610434565b0190565b6108399160208201915f8184039101526107f3565b90565b3461086c5761084c366004610217565b6108686108576107d0565b61085f61015c565b91829182610824565b0390f35b610162565b9060208282031261088a57610887915f01610350565b90565b610166565b346108bd576108a76108a2366004610871565b6112ac565b6108af61015c565b806108b98161038c565b0390f35b610162565b6108cd366004610217565b6108d56112b7565b6108dd61015c565b806108e78161038c565b0390f35b3461091a576109046108fe36600461035f565b90611342565b61090c61015c565b806109168161038c565b0390f35b610162565b7f65d7a28e3265b37a6474929f336521b332c1681b933f6cb9f3376673440d862a90565b61094b61091f565b90565b3461097e5761095e366004610217565b61097a610969610943565b61097161015c565b91829182610265565b0390f35b610162565b7f189ab7a9244df0848122154315af71fe140f3db0fe014031783b0946b8c9d2e390565b6109af610983565b90565b346109e2576109c2366004610217565b6109de6109cd6109a7565b6109d561015c565b91829182610265565b0390f35b610162565b5f80fd5b5f90565b6109f76109eb565b5080610a12610a0c637965db0b60e01b61016e565b9161016e565b14908115610a1f575b5090565b610a2991506113af565b5f610a1b565b5f90565b610a3c90610255565b90565b90610a4990610a33565b5f5260205260405f2090565b5f1c90565b90565b610a69610a6e91610a55565b610a5a565b90565b610a7b9054610a5d565b90565b6001610a9f610aa592610a8f610a2f565b505f610a996113d5565b01610a3f565b01610a71565b90565b90610ac391610abe610ab982610a7e565b6113f9565b610ac5565b565b90610acf91611443565b50565b90610adc91610aa8565b565b9080610af9610af3610aee6114fe565b610330565b91610330565b03610b0a57610b079161150b565b50565b5f63334bd91960e11b815280610b226004820161038c565b0390fd5b610b36610b3161091f565b6113f9565b610b3e610b40565b565b610b48611643565b565b610b52610b26565b565b90610b6691610b61611659565b610b68565b565b90610b7b91610b7681611713565b611775565b565b90610b8791610b54565b565b610b9a90610b95611873565b610be8565b90565b90565b610bb4610baf610bb992610b9d565b61065c565b610255565b90565b610be57f360894a13ba1a3210667c828492db98dca3e2076cc3735a920a3ca505d382bbc610ba0565b90565b50610bf1610bbc565b90565b610c04610bff610a2f565b610b89565b90565b60ff1690565b610c19610c1e91610a55565b610c07565b90565b610c2b9054610c0d565b90565b610c366109eb565b50610c495f610c436118d1565b01610c21565b90565b610c5c610c5761091f565b6113f9565b610c64610c66565b565b610c6e61195f565b565b610c78610c4c565b565b90565b610c91610c8c610c9692610325565b610c7a565b610325565b90565b610ca290610c7d565b90565b610cae90610c99565b90565b90610cbb90610ca5565b5f5260205260405f2090565b610cf6915f610ceb610cf193610cdb6109eb565b5082610ce56113d5565b01610a3f565b01610cb1565b610c21565b90565b610d1290610d0d610d08610226565b6113f9565b610d14565b565b610d2590610d20611969565b610e09565b610d2d61198e565b565b610d3890610c99565b90565b610d44906106c9565b9052565b916020610d69929493610d6260408201965f830190610d3b565b0190610d3b565b565b610d7490610c7d565b90565b610d8090610d6b565b90565b610d8c90610c99565b90565b905090565b610d9f5f8092610d8f565b0190565b610dac90610d94565b90565b90610dc1610dbc83610490565b61047b565b918252565b606090565b3d5f14610de657610ddb3d610daf565b903d5f602084013e5b565b610dee610dc6565b90610de4565b9190610e07905f60208501940190610d3b565b565b610e1230610d2f565b3181610e26610e20836106c9565b916106c9565b11610ece5750610e695f80610e42610e3d33610d77565b610d83565b84610e4b61015c565b9081610e5681610da3565b03925af1610e62610dcb565b50156101bb565b610eb25733610ead610e9b7fc36b5179cb9c303b200074996eab2b3473eac370fdd7eba3bec636fe3510969692610ca5565b92610ea461015c565b91829182610df4565b0390a2565b5f6312171d8360e31b815280610eca6004820161038c565b0390fd5b90610ee95f928392631040f08960e01b845260048401610d48565b0390fd5b610ef690610cf9565b565b60401c90565b610f0a610f0f91610ef8565b610c07565b90565b610f1c9054610efe565b90565b67ffffffffffffffff1690565b610f38610f3d91610a55565b610f1f565b90565b610f4a9054610f2c565b90565b67ffffffffffffffff1690565b610f6e610f69610f7392610659565b610c7a565b610f4d565b90565b90565b610f8d610f88610f9292610f76565b610c7a565b610f4d565b90565b610f9e90610c99565b90565b610fb5610fb0610fba92610659565b610c7a565b6106c9565b90565b90610fd067ffffffffffffffff9161065c565b9181191691161790565b610fee610fe9610ff392610f4d565b610c7a565b610f4d565b90565b90565b9061100e61100961101592610fda565b610ff6565b8254610fbd565b9055565b60401b90565b9061103368ff000000000000000091611019565b9181191691161790565b611046906101bb565b90565b90565b9061106161105c6110689261103d565b611049565b825461101f565b9055565b61107590610f79565b9052565b919061108c905f6020850194019061106c565b565b6110966119aa565b906110ab6110a55f8401610f12565b156101bb565b906110b75f8401610f40565b806110ca6110c45f610f5a565b91610f4d565b14806111e4575b906110e56110df6001610f79565b91610f4d565b14806111bc575b6110f79091156101bb565b90816111ab575b5061118f576111279061111c6111146001610f79565b5f8601610ff9565b8261117d575b611213565b61112f575b50565b61113c905f80910161104c565b60016111747fc7f505b2f371ae2175ee4913f4499e1f2633a7b5936321eed1cdaeb6115181d29161116b61015c565b91829182611079565b0390a15f61112c565b61118a60015f860161104c565b611122565b5f63f92ee8a960e01b8152806111a76004820161038c565b0390fd5b6111b69150156101bb565b5f6110fe565b506110f76111c930610f95565b3b6111dc6111d65f610fa1565b916106c9565b1490506110ec565b50826110d1565b6111ff6111fa61120492610659565b610c7a565b610325565b90565b611210906111eb565b90565b8061122e6112286112235f611207565b610330565b91610330565b146112905761128d9061123f6119bf565b6112476119d3565b61125961125261067d565b8290611443565b5061126c611265610226565b8290611443565b5061127f61127861091f565b8290611443565b50611288610983565b611443565b50565b5f63d92e233d60e01b8152806112a86004820161038c565b0390fd5b6112b59061108e565b565b346112ca6112c45f610fa1565b916106c9565b14611316573334906113116112ff7f2da466a7b24304f47e87fa2e1e5a81b9831ce54fec19055ce277ca2f39ba42c492610ca5565b9261130861015c565b91829182610df4565b0390a2565b565b906113339161132e61132982610a7e565b6113f9565b611335565b565b9061133f9161150b565b50565b9061134c91611318565b565b3461136161135b5f610fa1565b916106c9565b146113ad573334906113a86113967f2da466a7b24304f47e87fa2e1e5a81b9831ce54fec19055ce277ca2f39ba42c492610ca5565b9261139f61015c565b91829182610df4565b0390a2565b565b6113b76109eb565b506113d16113cb6301ffc9a760e01b61016e565b9161016e565b1490565b7f02dd7bc7dec4dceedda775e58dd541e08a116c6c53815c0bd028192f7b62680090565b61140b906114056114fe565b90611a00565b565b9061141960ff9161065c565b9181191691161790565b9061143861143361143f9261103d565b611049565b825461140d565b9055565b61144b6109eb565b506114546113d5565b611468611462838590610cc7565b156101bb565b5f146114f3576114929061148d5f61148581600194018690610a3f565b018590610cb1565b611423565b9061149b6114fe565b906114d86114d26114cc7f2f8788117e7eff1d82e926ec794901d17c78024a50270940304540a733656f0d95610a33565b92610ca5565b92610ca5565b926114e161015c565b806114eb8161038c565b0390a4600190565b5050505f90565b5f90565b6115066114fa565b503390565b6115136109eb565b5061151c6113d5565b611527828490610cc7565b5f146115b1576115509061154b5f611543818094018690610a3f565b018590610cb1565b611423565b906115596114fe565b9061159661159061158a7ff6391f5c32d9c69d2a47ea670b442974b53935d1edc7fd64eb21e047a839171b95610a33565b92610ca5565b92610ca5565b9261159f61015c565b806115a98161038c565b0390a4600190565b5050505f90565b6115c0611a3b565b6115c86115ec565b565b6115d390610330565b9052565b91906115ea905f602085019401906115ca565b565b6116006115f76118d1565b5f809101611423565b6116086114fe565b61163e7f5db9ee0a495bf2e6ff9c91a7834c1ba4fdd244a5e8aa4e537bd38aeae4b073aa9161163561015c565b918291826115d7565b0390a1565b61164b6115b8565b565b61165690610c99565b90565b6116623061164d565b61169461168e7f0000000000000000000000000000000000000000000000000000000000000000610330565b91610330565b1480156116be575b6116a257565b5f63703e46dd60e11b8152806116ba6004820161038c565b0390fd5b506116c7611a9a565b6116f96116f37f0000000000000000000000000000000000000000000000000000000000000000610330565b91610330565b141561169c565b5061171161170c610983565b6113f9565b565b61171c90611700565b565b61172790610c7d565b90565b6117339061171e565b90565b61173f90610c99565b90565b60e01b90565b90505190611755826102af565b565b906020828203126117705761176d915f01611748565b90565b610166565b91906117a3602061178d6117888661172a565b611736565b6352d1902d9061179b61015c565b938492611742565b825281806117b36004820161038c565b03915afa80915f92611843575b50155f146117f45750509060016117d557505b565b6117f0905f918291634c9c8ce360e01b8352600483016115d7565b0390fd5b928361180f611809611804610bbc565b610255565b91610255565b036118245761181f929350611ac4565b6117d3565b61183f845f918291632a87526960e21b835260048301610265565b0390fd5b61186591925060203d811161186c575b61185d8183610452565b810190611757565b905f6117c0565b503d611853565b61187c3061164d565b6118ae6118a87f0000000000000000000000000000000000000000000000000000000000000000610330565b91610330565b036118b557565b5f63703e46dd60e11b8152806118cd6004820161038c565b0390fd5b7fcd5ed15c6e187e77e9aee88184c21f4f2182ab5827cb3b7e07fbedcd63f0330090565b6118fd611b4d565b611905611907565b565b61191c6119126118d1565b5f60019101611423565b6119246114fe565b61195a7f62e78cea01bee320cd4e420270b5ea74000d11b0c9f74754ebdbfc544b05a2589161195161015c565b918291826115d7565b0390a1565b6119676118f5565b565b611971611b77565b61198c61198461197f611bec565b611c04565b600190611c19565b565b6119a86119a161199c611bec565b611c04565b5f90611c19565b565b6119b2611c67565b90565b6119bd611c7b565b565b6119c76119b5565b565b6119d1611c7b565b565b6119db6119c9565b565b9160206119fe9294936119f760408201965f8301906115ca565b0190610258565b565b90611a15611a0f838390610cc7565b156101bb565b611a1d575050565b611a375f92839263e2517d3f60e01b8452600484016119dd565b0390fd5b611a4c611a46610c2e565b156101bb565b611a5257565b5f638dfc202b60e01b815280611a6a6004820161038c565b0390fd5b60018060a01b031690565b611a85611a8a91610a55565b611a6e565b90565b611a979054611a79565b90565b611aa26114fa565b50611abd5f611ab7611ab2610bbc565b611cae565b01611a8d565b90565b5190565b90611ace82611cef565b81611af97fbc7cd75a20ee27fd9adebab32041f755214dbc6bffa90cc0225b39da2e5c2d3b91610ca5565b90611b0261015c565b80611b0c8161038c565b0390a2611b1881611ac0565b611b2a611b245f610fa1565b916106c9565b115f14611b3e57611b3a91611d7a565b505b565b5050611b48611d44565b611b3c565b611b55610c2e565b611b5b57565b5f63d93c066560e01b815280611b736004820161038c565b0390fd5b611b7f611e4d565b611b8557565b5f633ee5aeb560e01b815280611b9d6004820161038c565b0390fd5b90565b611bb8611bb3611bbd92611ba1565b61065c565b610255565b90565b611be97f9b779b17422d0df92223018b32b4d1fa46e071723d6817e2486d003becc55f00611ba4565b90565b611bf4610a2f565b50611bfd611bc0565b90565b5f90565b611c1690611c10611c00565b50610a33565b90565b5d565b90565b611c33611c2e611c3892611c1c565b61065c565b610255565b90565b611c647ff0c57e16840df040f15088dc2f81fe391c3923bec73e23a9662efc9c229c6a00611c1f565b90565b611c6f610a2f565b50611c78611c3b565b90565b611c8c611c86611e71565b156101bb565b611c9257565b5f631afcd79f60e31b815280611caa6004820161038c565b0390fd5b90565b90611cc260018060a01b039161065c565b9181191691161790565b90565b90611ce4611cdf611ceb92610ca5565b611ccc565b8254611cb1565b9055565b803b611d03611cfd5f610fa1565b916106c9565b14611d2557611d23905f611d1d611d18610bbc565b611cae565b01611ccf565b565b611d40905f918291634c9c8ce360e01b8352600483016115d7565b0390fd5b34611d57611d515f610fa1565b916106c9565b11611d5e57565b5f63b398979f60e01b815280611d766004820161038c565b0390fd5b90611d8e90611d87610dc6565b5082611e8f565b8080611e0a575b5f14611da8575050611da5611ec4565b90565b5f14611dcd57611dc9905f918291639996b31560e01b8352600483016115d7565b0390fd5b611dd5611eac565b611de7611de15f610fa1565b916106c9565b115f03611eb9575f63d6bda27560e01b815280611e066004820161038c565b0390fd5b50611e13611eac565b611e25611e1f5f610fa1565b916106c9565b118015611e32575b611d95565b50813b611e47611e415f610fa1565b916106c9565b11611e2d565b611e556109eb565b50611e6e611e69611e64611bec565b611c04565b611ee6565b90565b611e796109eb565b50611e8c5f611e866119aa565b01610f12565b90565b5f918291611e9b6109eb565b50602082519201905af490565b5f90565b611eb4611ea8565b503d90565b6040513d5f823e3d90fd5b611ecc610dc6565b50604051903d82523d5f602084013e3d6020018201604052565b611eee6109eb565b505c9056fea264697066735822122007860a3b98747624625b1c8a8f7e32975a58a0f628391705647fcb72c24f874a64736f6c634300081e0033","linkReferences":{}},"methodIdentifiers":{"DEFAULT_ADMIN_ROLE()":"a217fddf","PAUSER_ROLE()":"e63ab1e9","TREASURY_ADMIN_ROLE()":"0d109070","UPGRADER_ROLE()":"f72c0d8b","UPGRADE_INTERFACE_VERSION()":"ad3cb1cc","deposit()":"d0e30db0","getRoleAdmin(bytes32)":"248a9ca3","grantRole(bytes32,address)":"2f2ff15d","hasRole(bytes32,address)":"91d14854","initialize(address)":"c4d66de8","pause()":"8456cb59","paused()":"5c975abb","proxiableUUID()":"52d1902d","renounceRole(bytes32,address)":"36568abe","revokeRole(bytes32,address)":"d547741f","supportsInterface(bytes4)":"01ffc9a7","sweep(uint256)":"aa60e733","unpause()":"3f4ba83a","upgradeToAndCall(address,bytes)":"4f1ef286"},"id":56}